{
  "contractName": "MenuManagement",
  "abi": [
    {
      "inputs": [],
      "stateMutability": "nonpayable",
      "type": "constructor"
    },
    {
      "inputs": [
        {
          "internalType": "uint256",
          "name": "",
          "type": "uint256"
        }
      ],
      "name": "menuItems",
      "outputs": [
        {
          "internalType": "string",
          "name": "itemName",
          "type": "string"
        },
        {
          "internalType": "uint256",
          "name": "quantity",
          "type": "uint256"
        },
        {
          "internalType": "uint256",
          "name": "price",
          "type": "uint256"
        }
      ],
      "stateMutability": "view",
      "type": "function",
      "constant": true
    },
    {
      "inputs": [],
      "name": "owner",
      "outputs": [
        {
          "internalType": "address",
          "name": "",
          "type": "address"
        }
      ],
      "stateMutability": "view",
      "type": "function",
      "constant": true
    },
    {
      "inputs": [],
      "name": "getItemsCount",
      "outputs": [
        {
          "internalType": "uint256",
          "name": "",
          "type": "uint256"
        }
      ],
      "stateMutability": "view",
      "type": "function",
      "constant": true
    },
    {
      "inputs": [
        {
          "internalType": "string",
          "name": "_itemName",
          "type": "string"
        },
        {
          "internalType": "uint256",
          "name": "_itemQuantity",
          "type": "uint256"
        },
        {
          "internalType": "uint256",
          "name": "_itemPrice",
          "type": "uint256"
        }
      ],
      "name": "addMenuItem",
      "outputs": [],
      "stateMutability": "nonpayable",
      "type": "function"
    },
    {
      "inputs": [
        {
          "internalType": "uint256",
          "name": "_index",
          "type": "uint256"
        },
        {
          "internalType": "uint256",
          "name": "_itemPrice",
          "type": "uint256"
        }
      ],
      "name": "updateMenuItemPrice",
      "outputs": [],
      "stateMutability": "nonpayable",
      "type": "function"
    },
    {
      "inputs": [
        {
          "internalType": "uint256",
          "name": "_index",
          "type": "uint256"
        }
      ],
      "name": "getItemPrice",
      "outputs": [
        {
          "internalType": "uint256",
          "name": "",
          "type": "uint256"
        }
      ],
      "stateMutability": "view",
      "type": "function",
      "constant": true
    },
    {
      "inputs": [
        {
          "internalType": "uint256",
          "name": "_index",
          "type": "uint256"
        },
        {
          "internalType": "uint256",
          "name": "_itemQuantity",
          "type": "uint256"
        }
      ],
      "name": "updateMenuItemQuantity",
      "outputs": [],
      "stateMutability": "nonpayable",
      "type": "function"
    },
    {
      "inputs": [
        {
          "internalType": "uint256",
          "name": "_index",
          "type": "uint256"
        }
      ],
      "name": "getItemQuantity",
      "outputs": [
        {
          "internalType": "uint256",
          "name": "",
          "type": "uint256"
        }
      ],
      "stateMutability": "view",
      "type": "function",
      "constant": true
    },
    {
      "inputs": [
        {
          "internalType": "uint256",
          "name": "_index",
          "type": "uint256"
        }
      ],
      "name": "checkAvailability",
      "outputs": [
        {
          "internalType": "bool",
          "name": "",
          "type": "bool"
        }
      ],
      "stateMutability": "view",
      "type": "function",
      "constant": true
    }
  ],
  "bytecode": "0x608060405234801561000f575f80fd5b50335f806101000a81548173ffffffffffffffffffffffffffffffffffffffff021916908373ffffffffffffffffffffffffffffffffffffffff16021790555061100f8061005c5f395ff3fe608060405234801561000f575f80fd5b5060043610610091575f3560e01c80636d2053bb116100645780636d2053bb146101315780636f5528c01461014d578063753999ef1461017d57806377b93ad1146101ad5780638da5cb5b146101c957610091565b80631119c61d146100955780632a5a8c63146100b15780634c4df870146100e3578063512dd02014610113575b5f80fd5b6100af60048036038101906100aa91906107a8565b6101e7565b005b6100cb60048036038101906100c691906107e6565b6102fa565b6040516100da939291906108aa565b60405180910390f35b6100fd60048036038101906100f891906107e6565b6103b5565b60405161010a91906108e6565b60405180910390f35b61011b61043b565b60405161012891906108e6565b60405180910390f35b61014b60048036038101906101469190610a2b565b610447565b005b610167600480360381019061016291906107e6565b610559565b60405161017491906108e6565b60405180910390f35b610197600480360381019061019291906107e6565b6105cc565b6040516101a49190610ab1565b60405180910390f35b6101c760048036038101906101c291906107a8565b610641565b005b6101d1610741565b6040516101de9190610b09565b60405180910390f35b5f8054906101000a900473ffffffffffffffffffffffffffffffffffffffff1673ffffffffffffffffffffffffffffffffffffffff163373ffffffffffffffffffffffffffffffffffffffff1614610274576040517f08c379a000000000000000000000000000000000000000000000000000000000815260040161026b90610b92565b60405180910390fd5b60018054905082106102bb576040517f08c379a00000000000000000000000000000000000000000000000000000000081526004016102b290610bfa565b60405180910390fd5b670de0b6b3a7640000816102cf9190610c45565b600183815481106102e3576102e2610c86565b5b905f5260205f209060030201600201819055505050565b60018181548110610309575f80fd5b905f5260205f2090600302015f91509050805f01805461032890610ce0565b80601f016020809104026020016040519081016040528092919081815260200182805461035490610ce0565b801561039f5780601f106103765761010080835404028352916020019161039f565b820191905f5260205f20905b81548152906001019060200180831161038257829003601f168201915b5050505050908060010154908060020154905083565b5f60018054905082106103fd576040517f08c379a00000000000000000000000000000000000000000000000000000000081526004016103f490610bfa565b60405180910390fd5b670de0b6b3a76400006001838154811061041a57610419610c86565b5b905f5260205f209060030201600201546104349190610d3d565b9050919050565b5f600180549050905090565b5f8054906101000a900473ffffffffffffffffffffffffffffffffffffffff1673ffffffffffffffffffffffffffffffffffffffff163373ffffffffffffffffffffffffffffffffffffffff16146104d4576040517f08c379a00000000000000000000000000000000000000000000000000000000081526004016104cb90610b92565b60405180910390fd5b60016040518060600160405280858152602001848152602001670de0b6b3a7640000846105019190610c45565b815250908060018154018082558091505060019003905f5260205f2090600302015f909190919091505f820151815f01908161053d9190610f0a565b5060208201518160010155604082015181600201555050505050565b5f60018054905082106105a1576040517f08c379a000000000000000000000000000000000000000000000000000000000815260040161059890610bfa565b60405180910390fd5b600182815481106105b5576105b4610c86565b5b905f5260205f209060030201600101549050919050565b5f6001805490508210610614576040517f08c379a000000000000000000000000000000000000000000000000000000000815260040161060b90610bfa565b60405180910390fd5b5f6001838154811061062957610628610c86565b5b905f5260205f20906003020160010154119050919050565b5f8054906101000a900473ffffffffffffffffffffffffffffffffffffffff1673ffffffffffffffffffffffffffffffffffffffff163373ffffffffffffffffffffffffffffffffffffffff16146106ce576040517f08c379a00000000000000000000000000000000000000000000000000000000081526004016106c590610b92565b60405180910390fd5b6001805490508210610715576040517f08c379a000000000000000000000000000000000000000000000000000000000815260040161070c90610bfa565b60405180910390fd5b806001838154811061072a57610729610c86565b5b905f5260205f209060030201600101819055505050565b5f8054906101000a900473ffffffffffffffffffffffffffffffffffffffff1681565b5f604051905090565b5f80fd5b5f80fd5b5f819050919050565b61078781610775565b8114610791575f80fd5b50565b5f813590506107a28161077e565b92915050565b5f80604083850312156107be576107bd61076d565b5b5f6107cb85828601610794565b92505060206107dc85828601610794565b9150509250929050565b5f602082840312156107fb576107fa61076d565b5b5f61080884828501610794565b91505092915050565b5f81519050919050565b5f82825260208201905092915050565b5f5b8381101561084857808201518184015260208101905061082d565b5f8484015250505050565b5f601f19601f8301169050919050565b5f61086d82610811565b610877818561081b565b935061088781856020860161082b565b61089081610853565b840191505092915050565b6108a481610775565b82525050565b5f6060820190508181035f8301526108c28186610863565b90506108d1602083018561089b565b6108de604083018461089b565b949350505050565b5f6020820190506108f95f83018461089b565b92915050565b5f80fd5b5f80fd5b7f4e487b71000000000000000000000000000000000000000000000000000000005f52604160045260245ffd5b61093d82610853565b810181811067ffffffffffffffff8211171561095c5761095b610907565b5b80604052505050565b5f61096e610764565b905061097a8282610934565b919050565b5f67ffffffffffffffff82111561099957610998610907565b5b6109a282610853565b9050602081019050919050565b828183375f83830152505050565b5f6109cf6109ca8461097f565b610965565b9050828152602081018484840111156109eb576109ea610903565b5b6109f68482856109af565b509392505050565b5f82601f830112610a1257610a116108ff565b5b8135610a228482602086016109bd565b91505092915050565b5f805f60608486031215610a4257610a4161076d565b5b5f84013567ffffffffffffffff811115610a5f57610a5e610771565b5b610a6b868287016109fe565b9350506020610a7c86828701610794565b9250506040610a8d86828701610794565b9150509250925092565b5f8115159050919050565b610aab81610a97565b82525050565b5f602082019050610ac45f830184610aa2565b92915050565b5f73ffffffffffffffffffffffffffffffffffffffff82169050919050565b5f610af382610aca565b9050919050565b610b0381610ae9565b82525050565b5f602082019050610b1c5f830184610afa565b92915050565b7f4f6e6c7920746865206f776e65722028636166657465726961207374616666295f8201527f2063616e20616464206d656e75206974656d7300000000000000000000000000602082015250565b5f610b7c60338361081b565b9150610b8782610b22565b604082019050919050565b5f6020820190508181035f830152610ba981610b70565b9050919050565b7f496e76616c696420696e646578000000000000000000000000000000000000005f82015250565b5f610be4600d8361081b565b9150610bef82610bb0565b602082019050919050565b5f6020820190508181035f830152610c1181610bd8565b9050919050565b7f4e487b71000000000000000000000000000000000000000000000000000000005f52601160045260245ffd5b5f610c4f82610775565b9150610c5a83610775565b9250828202610c6881610775565b91508282048414831517610c7f57610c7e610c18565b5b5092915050565b7f4e487b71000000000000000000000000000000000000000000000000000000005f52603260045260245ffd5b7f4e487b71000000000000000000000000000000000000000000000000000000005f52602260045260245ffd5b5f6002820490506001821680610cf757607f821691505b602082108103610d0a57610d09610cb3565b5b50919050565b7f4e487b71000000000000000000000000000000000000000000000000000000005f52601260045260245ffd5b5f610d4782610775565b9150610d5283610775565b925082610d6257610d61610d10565b5b828204905092915050565b5f819050815f5260205f209050919050565b5f6020601f8301049050919050565b5f82821b905092915050565b5f60088302610dc97fffffffffffffffffffffffffffffffffffffffffffffffffffffffffffffffff82610d8e565b610dd38683610d8e565b95508019841693508086168417925050509392505050565b5f819050919050565b5f610e0e610e09610e0484610775565b610deb565b610775565b9050919050565b5f819050919050565b610e2783610df4565b610e3b610e3382610e15565b848454610d9a565b825550505050565b5f90565b610e4f610e43565b610e5a818484610e1e565b505050565b5b81811015610e7d57610e725f82610e47565b600181019050610e60565b5050565b601f821115610ec257610e9381610d6d565b610e9c84610d7f565b81016020851015610eab578190505b610ebf610eb785610d7f565b830182610e5f565b50505b505050565b5f82821c905092915050565b5f610ee25f1984600802610ec7565b1980831691505092915050565b5f610efa8383610ed3565b9150826002028217905092915050565b610f1382610811565b67ffffffffffffffff811115610f2c57610f2b610907565b5b610f368254610ce0565b610f41828285610e81565b5f60209050601f831160018114610f72575f8415610f60578287015190505b610f6a8582610eef565b865550610fd1565b601f198416610f8086610d6d565b5f5b82811015610fa757848901518255600182019150602085019450602081019050610f82565b86831015610fc45784890151610fc0601f891682610ed3565b8355505b6001600288020188555050505b50505050505056fea2646970667358221220b9b998ed49f28e194016a665f46ffc5ee9c430fd0ea368a1512cdfba7cb9646964736f6c63430008150033",
  "immutableReferences": {},
  "source": "// SPDX-License-Identifier: MIT\r\n\r\n// Manages the cafeteria menu, including items, prices,\r\n// and availability. This contract provides functions for the cafeteria staff to add new menu items,\r\n// update prices, and check item availability.\r\n\r\npragma solidity >=0.8.2 <0.9.0;\r\n\r\ncontract MenuManagement{\r\n\r\n    // state variables (stored directly on the blockchain)\r\n    address public owner;\r\n\r\n    // called only once when the smart contract is deployed to the blockchain\r\n    constructor() {\r\n        owner = msg.sender;\r\n    }\r\n\r\n    struct MenuItem {\r\n        string itemName;\r\n        uint256 quantity;\r\n        uint256 price;\r\n    }\r\n\r\n    // array to store menu items\r\n    MenuItem[] public menuItems;\r\n\r\n    function getItemsCount() public view returns (uint256) {\r\n        return menuItems.length;\r\n    }\r\n\r\n    // allows only the owner (cafeteria staff) to add menu items\r\n    modifier onlyOwner() {\r\n        require(msg.sender == owner, \"Only the owner (cafeteria staff) can add menu items\");\r\n        _;\r\n    }\r\n\r\n    function addMenuItem(string memory _itemName, uint256 _itemQuantity, uint256 _itemPrice) onlyOwner public {\r\n        menuItems.push(MenuItem(_itemName, _itemQuantity, _itemPrice * 1 ether));\r\n    }\r\n\r\n    function updateMenuItemPrice(uint256 _index, uint256 _itemPrice) onlyOwner public {\r\n        require(_index < menuItems.length, \"Invalid index\");\r\n        menuItems[_index].price = _itemPrice * 1 ether;\r\n    }\r\n\r\n    function getItemPrice(uint256 _index) public view returns (uint256) {\r\n        require(_index < menuItems.length, \"Invalid index\");\r\n        return menuItems[_index].price / 1 ether;\r\n    }\r\n\r\n    function updateMenuItemQuantity(uint256 _index, uint256 _itemQuantity) onlyOwner public {\r\n        require(_index < menuItems.length, \"Invalid index\");\r\n        menuItems[_index].quantity = _itemQuantity;\r\n    }\r\n\r\n    function getItemQuantity(uint256 _index) public view returns (uint256) {\r\n        require(_index < menuItems.length, \"Invalid index\");\r\n        return menuItems[_index].quantity;\r\n    }\r\n\r\n    function checkAvailability(uint256 _index) public view returns (bool) {\r\n        require(_index < menuItems.length, \"Invalid index\");\r\n        // available if quantity is more than 0\r\n        return (menuItems[_index].quantity > 0);\r\n    }\r\n\r\n    // no need for this since state variables getter functions are automatically provided by Solidity\r\n    // function getAllMenuItems() public view returns (MenuItem[] memory) {\r\n    //     return menuItems;\r\n    // }\r\n}\r\n",
  "sourcePath": "D:\\Study\\Blockchain\\Cafeteria-System-Decentralized\\truffle_smart_contracts\\contracts\\MenuManagement.sol",
  "compiler": {
    "name": "solc",
    "version": "0.8.21+commit.d9974bed.Emscripten.clang"
  },
  "schemaVersion": "3.4.16",
  "updatedAt": "2023-12-12T19:43:57.294Z",
  "networkType": "ethereum",
  "devdoc": {
    "kind": "dev",
    "methods": {},
    "version": 1
  },
  "userdoc": {
    "kind": "user",
    "methods": {},
    "version": 1
  }
}