{
  "contractName": "MenuManagement",
  "abi": [
    {
      "inputs": [],
      "stateMutability": "nonpayable",
      "type": "constructor"
    },
    {
      "inputs": [
        {
          "internalType": "uint256",
          "name": "",
          "type": "uint256"
        }
      ],
      "name": "menuItems",
      "outputs": [
        {
          "internalType": "string",
          "name": "itemName",
          "type": "string"
        },
        {
          "internalType": "uint256",
          "name": "quantity",
          "type": "uint256"
        },
        {
          "internalType": "uint256",
          "name": "price",
          "type": "uint256"
        }
      ],
      "stateMutability": "view",
      "type": "function",
      "constant": true
    },
    {
      "inputs": [],
      "name": "owner",
      "outputs": [
        {
          "internalType": "address",
          "name": "",
          "type": "address"
        }
      ],
      "stateMutability": "view",
      "type": "function",
      "constant": true
    },
    {
      "inputs": [],
      "name": "getItemsCount",
      "outputs": [
        {
          "internalType": "uint256",
          "name": "",
          "type": "uint256"
        }
      ],
      "stateMutability": "view",
      "type": "function",
      "constant": true
    },
    {
      "inputs": [
        {
          "internalType": "string",
          "name": "_itemName",
          "type": "string"
        },
        {
          "internalType": "uint256",
          "name": "_itemQuantity",
          "type": "uint256"
        },
        {
          "internalType": "uint256",
          "name": "_itemPrice",
          "type": "uint256"
        }
      ],
      "name": "addMenuItem",
      "outputs": [],
      "stateMutability": "nonpayable",
      "type": "function"
    },
    {
      "inputs": [
        {
          "internalType": "uint256",
          "name": "_index",
          "type": "uint256"
        },
        {
          "internalType": "uint256",
          "name": "_itemPrice",
          "type": "uint256"
        }
      ],
      "name": "updateMenuItemPrice",
      "outputs": [],
      "stateMutability": "nonpayable",
      "type": "function"
    },
    {
      "inputs": [
        {
          "internalType": "uint256",
          "name": "_index",
          "type": "uint256"
        }
      ],
      "name": "getItemPrice",
      "outputs": [
        {
          "internalType": "uint256",
          "name": "",
          "type": "uint256"
        }
      ],
      "stateMutability": "view",
      "type": "function",
      "constant": true
    },
    {
      "inputs": [
        {
          "internalType": "uint256",
          "name": "_index",
          "type": "uint256"
        },
        {
          "internalType": "uint256",
          "name": "_itemQuantity",
          "type": "uint256"
        }
      ],
      "name": "updateMenuItemQuantity",
      "outputs": [],
      "stateMutability": "nonpayable",
      "type": "function"
    },
    {
      "inputs": [
        {
          "internalType": "uint256",
          "name": "_index",
          "type": "uint256"
        }
      ],
      "name": "getItemQuantity",
      "outputs": [
        {
          "internalType": "uint256",
          "name": "",
          "type": "uint256"
        }
      ],
      "stateMutability": "view",
      "type": "function",
      "constant": true
    },
    {
      "inputs": [
        {
          "internalType": "uint256",
          "name": "_index",
          "type": "uint256"
        }
      ],
      "name": "checkAvailability",
      "outputs": [
        {
          "internalType": "bool",
          "name": "",
          "type": "bool"
        }
      ],
      "stateMutability": "view",
      "type": "function",
      "constant": true
    }
  ],
  "bytecode": "0x608060405234801561000f575f80fd5b50335f806101000a81548173ffffffffffffffffffffffffffffffffffffffff021916908373ffffffffffffffffffffffffffffffffffffffff160217905550610dda8061005c5f395ff3fe608060405234801561000f575f80fd5b5060043610610091575f3560e01c80636d2053bb116100645780636d2053bb146101315780636f5528c01461014d578063753999ef1461017d57806377b93ad1146101ad5780638da5cb5b146101c957610091565b80631119c61d146100955780632a5a8c63146100b15780634c4df870146100e3578063512dd02014610113575b5f80fd5b6100af60048036038101906100aa9190610601565b6101e7565b005b6100cb60048036038101906100c6919061063f565b61026d565b6040516100da93929190610703565b60405180910390f35b6100fd60048036038101906100f8919061063f565b610328565b60405161010a919061073f565b60405180910390f35b61011b6103ae565b604051610128919061073f565b60405180910390f35b61014b60048036038101906101469190610884565b6103ba565b005b6101676004803603810190610162919061063f565b61043f565b604051610174919061073f565b60405180910390f35b6101976004803603810190610192919061063f565b6104b2565b6040516101a4919061090a565b60405180910390f35b6101c760048036038101906101c29190610601565b610527565b005b6101d161059a565b6040516101de9190610962565b60405180910390f35b600180549050821061022e576040517f08c379a0000000000000000000000000000000000000000000000000000000008152600401610225906109c5565b60405180910390fd5b670de0b6b3a7640000816102429190610a10565b6001838154811061025657610255610a51565b5b905f5260205f209060030201600201819055505050565b6001818154811061027c575f80fd5b905f5260205f2090600302015f91509050805f01805461029b90610aab565b80601f01602080910402602001604051908101604052809291908181526020018280546102c790610aab565b80156103125780601f106102e957610100808354040283529160200191610312565b820191905f5260205f20905b8154815290600101906020018083116102f557829003601f168201915b5050505050908060010154908060020154905083565b5f6001805490508210610370576040517f08c379a0000000000000000000000000000000000000000000000000000000008152600401610367906109c5565b60405180910390fd5b670de0b6b3a76400006001838154811061038d5761038c610a51565b5b905f5260205f209060030201600201546103a79190610b08565b9050919050565b5f600180549050905090565b60016040518060600160405280858152602001848152602001670de0b6b3a7640000846103e79190610a10565b815250908060018154018082558091505060019003905f5260205f2090600302015f909190919091505f820151815f0190816104239190610cd5565b5060208201518160010155604082015181600201555050505050565b5f6001805490508210610487576040517f08c379a000000000000000000000000000000000000000000000000000000000815260040161047e906109c5565b60405180910390fd5b6001828154811061049b5761049a610a51565b5b905f5260205f209060030201600101549050919050565b5f60018054905082106104fa576040517f08c379a00000000000000000000000000000000000000000000000000000000081526004016104f1906109c5565b60405180910390fd5b5f6001838154811061050f5761050e610a51565b5b905f5260205f20906003020160010154119050919050565b600180549050821061056e576040517f08c379a0000000000000000000000000000000000000000000000000000000008152600401610565906109c5565b60405180910390fd5b806001838154811061058357610582610a51565b5b905f5260205f209060030201600101819055505050565b5f8054906101000a900473ffffffffffffffffffffffffffffffffffffffff1681565b5f604051905090565b5f80fd5b5f80fd5b5f819050919050565b6105e0816105ce565b81146105ea575f80fd5b50565b5f813590506105fb816105d7565b92915050565b5f8060408385031215610617576106166105c6565b5b5f610624858286016105ed565b9250506020610635858286016105ed565b9150509250929050565b5f60208284031215610654576106536105c6565b5b5f610661848285016105ed565b91505092915050565b5f81519050919050565b5f82825260208201905092915050565b5f5b838110156106a1578082015181840152602081019050610686565b5f8484015250505050565b5f601f19601f8301169050919050565b5f6106c68261066a565b6106d08185610674565b93506106e0818560208601610684565b6106e9816106ac565b840191505092915050565b6106fd816105ce565b82525050565b5f6060820190508181035f83015261071b81866106bc565b905061072a60208301856106f4565b61073760408301846106f4565b949350505050565b5f6020820190506107525f8301846106f4565b92915050565b5f80fd5b5f80fd5b7f4e487b71000000000000000000000000000000000000000000000000000000005f52604160045260245ffd5b610796826106ac565b810181811067ffffffffffffffff821117156107b5576107b4610760565b5b80604052505050565b5f6107c76105bd565b90506107d3828261078d565b919050565b5f67ffffffffffffffff8211156107f2576107f1610760565b5b6107fb826106ac565b9050602081019050919050565b828183375f83830152505050565b5f610828610823846107d8565b6107be565b9050828152602081018484840111156108445761084361075c565b5b61084f848285610808565b509392505050565b5f82601f83011261086b5761086a610758565b5b813561087b848260208601610816565b91505092915050565b5f805f6060848603121561089b5761089a6105c6565b5b5f84013567ffffffffffffffff8111156108b8576108b76105ca565b5b6108c486828701610857565b93505060206108d5868287016105ed565b92505060406108e6868287016105ed565b9150509250925092565b5f8115159050919050565b610904816108f0565b82525050565b5f60208201905061091d5f8301846108fb565b92915050565b5f73ffffffffffffffffffffffffffffffffffffffff82169050919050565b5f61094c82610923565b9050919050565b61095c81610942565b82525050565b5f6020820190506109755f830184610953565b92915050565b7f496e76616c696420696e646578000000000000000000000000000000000000005f82015250565b5f6109af600d83610674565b91506109ba8261097b565b602082019050919050565b5f6020820190508181035f8301526109dc816109a3565b9050919050565b7f4e487b71000000000000000000000000000000000000000000000000000000005f52601160045260245ffd5b5f610a1a826105ce565b9150610a25836105ce565b9250828202610a33816105ce565b91508282048414831517610a4a57610a496109e3565b5b5092915050565b7f4e487b71000000000000000000000000000000000000000000000000000000005f52603260045260245ffd5b7f4e487b71000000000000000000000000000000000000000000000000000000005f52602260045260245ffd5b5f6002820490506001821680610ac257607f821691505b602082108103610ad557610ad4610a7e565b5b50919050565b7f4e487b71000000000000000000000000000000000000000000000000000000005f52601260045260245ffd5b5f610b12826105ce565b9150610b1d836105ce565b925082610b2d57610b2c610adb565b5b828204905092915050565b5f819050815f5260205f209050919050565b5f6020601f8301049050919050565b5f82821b905092915050565b5f60088302610b947fffffffffffffffffffffffffffffffffffffffffffffffffffffffffffffffff82610b59565b610b9e8683610b59565b95508019841693508086168417925050509392505050565b5f819050919050565b5f610bd9610bd4610bcf846105ce565b610bb6565b6105ce565b9050919050565b5f819050919050565b610bf283610bbf565b610c06610bfe82610be0565b848454610b65565b825550505050565b5f90565b610c1a610c0e565b610c25818484610be9565b505050565b5b81811015610c4857610c3d5f82610c12565b600181019050610c2b565b5050565b601f821115610c8d57610c5e81610b38565b610c6784610b4a565b81016020851015610c76578190505b610c8a610c8285610b4a565b830182610c2a565b50505b505050565b5f82821c905092915050565b5f610cad5f1984600802610c92565b1980831691505092915050565b5f610cc58383610c9e565b9150826002028217905092915050565b610cde8261066a565b67ffffffffffffffff811115610cf757610cf6610760565b5b610d018254610aab565b610d0c828285610c4c565b5f60209050601f831160018114610d3d575f8415610d2b578287015190505b610d358582610cba565b865550610d9c565b601f198416610d4b86610b38565b5f5b82811015610d7257848901518255600182019150602085019450602081019050610d4d565b86831015610d8f5784890151610d8b601f891682610c9e565b8355505b6001600288020188555050505b50505050505056fea26469706673582212203cba4c4bab276326023b1d29b1bff3e895dbeba4db5337add5db7ba328eeee5964736f6c63430008150033",
  "immutableReferences": {},
  "source": "// SPDX-License-Identifier: MIT\r\n\r\n// Manages the cafeteria menu, including items, prices,\r\n// and availability. This contract provides functions for the cafeteria staff to add new menu items,\r\n// update prices, and check item availability.\r\n\r\npragma solidity >=0.8.2 <0.9.0;\r\n\r\ncontract MenuManagement{\r\n\r\n    // state variables (stored directly on the blockchain)\r\n    address public owner;\r\n\r\n    // called only once when the smart contract is deployed to the blockchain\r\n    constructor() {\r\n        owner = msg.sender;\r\n    }\r\n\r\n    struct MenuItem {\r\n        string itemName;\r\n        uint256 quantity;\r\n        uint256 price;\r\n    }\r\n\r\n    // array to store menu items\r\n    MenuItem[] public menuItems;\r\n\r\n    function getItemsCount() public view returns (uint256) {\r\n        return menuItems.length;\r\n    }\r\n\r\n    // function getAllMenuItems() public view returns (MenuItem[] memory) {\r\n    //     return menuItems;\r\n    // }\r\n\r\n    // allows only the owner (cafeteria staff) to add menu items\r\n    // modifier onlyOwner() {\r\n    //     require(\r\n    //         msg.sender == owner, \r\n    //         \"Only the owner (cafeteria staff) can add menu items\"\r\n    //         );\r\n    //     _;\r\n    // }\r\n\r\n    function addMenuItem(string memory _itemName, uint256 _itemQuantity, uint256 _itemPrice) public {\r\n        menuItems.push(MenuItem(_itemName, _itemQuantity, _itemPrice * 1 ether));\r\n    }\r\n\r\n    function updateMenuItemPrice(uint256 _index, uint256 _itemPrice) public {\r\n        require(_index < menuItems.length, \"Invalid index\");\r\n        // multiply by 1 ether to convert to wei\r\n        menuItems[_index].price = _itemPrice * 1 ether;\r\n    }\r\n\r\n    function getItemPrice(uint256 _index) public view returns (uint256) {\r\n        require(_index < menuItems.length, \"Invalid index\");\r\n        // divide by 1 ether to convert to ether\r\n        return menuItems[_index].price / 1 ether;\r\n    }\r\n\r\n    function updateMenuItemQuantity(uint256 _index, uint256 _itemQuantity) public {\r\n        require(_index < menuItems.length, \"Invalid index\");\r\n        menuItems[_index].quantity = _itemQuantity;\r\n    }\r\n\r\n    function getItemQuantity(uint256 _index) public view returns (uint256) {\r\n        require(_index < menuItems.length, \"Invalid index\");\r\n        return menuItems[_index].quantity;\r\n    }\r\n\r\n    function checkAvailability(uint256 _index) public view returns (bool) {\r\n        require(_index < menuItems.length, \"Invalid index\");\r\n        // available if quantity is more than 0\r\n        return (menuItems[_index].quantity > 0);\r\n    }\r\n\r\n\r\n}\r\n",
  "sourcePath": "D:\\Study\\Blockchain\\Cafeteria-System-Decentralized\\truffle_smart_contracts\\contracts\\MenuManagement.sol",
  "compiler": {
    "name": "solc",
    "version": "0.8.21+commit.d9974bed.Emscripten.clang"
  },
  "schemaVersion": "3.4.16",
  "updatedAt": "2023-12-13T10:43:41.537Z",
  "networkType": "ethereum",
  "devdoc": {
    "kind": "dev",
    "methods": {},
    "version": 1
  },
  "userdoc": {
    "kind": "user",
    "methods": {},
    "version": 1
  }
}