{
  "contractName": "OrderContract",
  "abi": [
    {
      "inputs": [
        {
          "internalType": "contract MenuManagement",
          "name": "_mm",
          "type": "address"
        },
        {
          "internalType": "contract promotions",
          "name": "_pr",
          "type": "address"
        },
        {
          "internalType": "contract RewardsLoyalty",
          "name": "_rl",
          "type": "address"
        },
        {
          "internalType": "contract FastCoin",
          "name": "_fc",
          "type": "address"
        }
      ],
      "stateMutability": "nonpayable",
      "type": "constructor"
    },
    {
      "inputs": [],
      "name": "fc",
      "outputs": [
        {
          "internalType": "contract FastCoin",
          "name": "",
          "type": "address"
        }
      ],
      "stateMutability": "view",
      "type": "function",
      "constant": true
    },
    {
      "inputs": [],
      "name": "mm",
      "outputs": [
        {
          "internalType": "contract MenuManagement",
          "name": "",
          "type": "address"
        }
      ],
      "stateMutability": "view",
      "type": "function",
      "constant": true
    },
    {
      "inputs": [],
      "name": "owner",
      "outputs": [
        {
          "internalType": "address",
          "name": "",
          "type": "address"
        }
      ],
      "stateMutability": "view",
      "type": "function",
      "constant": true
    },
    {
      "inputs": [],
      "name": "pr",
      "outputs": [
        {
          "internalType": "contract promotions",
          "name": "",
          "type": "address"
        }
      ],
      "stateMutability": "view",
      "type": "function",
      "constant": true
    },
    {
      "inputs": [],
      "name": "rl",
      "outputs": [
        {
          "internalType": "contract RewardsLoyalty",
          "name": "",
          "type": "address"
        }
      ],
      "stateMutability": "view",
      "type": "function",
      "constant": true
    },
    {
      "inputs": [
        {
          "internalType": "uint256[]",
          "name": "_itemIndexes",
          "type": "uint256[]"
        },
        {
          "internalType": "uint256[]",
          "name": "_quantities",
          "type": "uint256[]"
        }
      ],
      "name": "calculateOrderAmount",
      "outputs": [
        {
          "internalType": "uint256",
          "name": "",
          "type": "uint256"
        }
      ],
      "stateMutability": "view",
      "type": "function",
      "constant": true
    },
    {
      "inputs": [
        {
          "internalType": "uint256[]",
          "name": "_itemIndexes",
          "type": "uint256[]"
        },
        {
          "internalType": "uint256[]",
          "name": "_quantities",
          "type": "uint256[]"
        },
        {
          "internalType": "uint256",
          "name": "payment",
          "type": "uint256"
        }
      ],
      "name": "placeOrder",
      "outputs": [],
      "stateMutability": "nonpayable",
      "type": "function"
    }
  ],
  "bytecode": "0x60806040523480156200001157600080fd5b5060405162001591380380620015918339818101604052810190620000379190620002d2565b336000806101000a81548173ffffffffffffffffffffffffffffffffffffffff021916908373ffffffffffffffffffffffffffffffffffffffff16021790555083600160006101000a81548173ffffffffffffffffffffffffffffffffffffffff021916908373ffffffffffffffffffffffffffffffffffffffff16021790555082600260006101000a81548173ffffffffffffffffffffffffffffffffffffffff021916908373ffffffffffffffffffffffffffffffffffffffff16021790555081600360006101000a81548173ffffffffffffffffffffffffffffffffffffffff021916908373ffffffffffffffffffffffffffffffffffffffff16021790555080600460006101000a81548173ffffffffffffffffffffffffffffffffffffffff021916908373ffffffffffffffffffffffffffffffffffffffff1602179055505050505062000344565b600080fd5b600073ffffffffffffffffffffffffffffffffffffffff82169050919050565b6000620001b7826200018a565b9050919050565b6000620001cb82620001aa565b9050919050565b620001dd81620001be565b8114620001e957600080fd5b50565b600081519050620001fd81620001d2565b92915050565b60006200021082620001aa565b9050919050565b620002228162000203565b81146200022e57600080fd5b50565b600081519050620002428162000217565b92915050565b60006200025582620001aa565b9050919050565b620002678162000248565b81146200027357600080fd5b50565b60008151905062000287816200025c565b92915050565b60006200029a82620001aa565b9050919050565b620002ac816200028d565b8114620002b857600080fd5b50565b600081519050620002cc81620002a1565b92915050565b60008060008060808587031215620002ef57620002ee62000185565b5b6000620002ff87828801620001ec565b9450506020620003128782880162000231565b9350506040620003258782880162000276565b92505060606200033887828801620002bb565b91505092959194509250565b61123d80620003546000396000f3fe608060405234801561001057600080fd5b506004361061007d5760003560e01c80638da5cb5b1161005b5780638da5cb5b146100da578063939dbea9146100f85780639c80771014610128578063e90eaa51146101465761007d565b80631509c42a146100825780636654b4d0146100a057806381f4be5e146100bc575b600080fd5b61008a610164565b60405161009791906109c2565b60405180910390f35b6100ba60048036038101906100b59190610b80565b61018a565b005b6100c46104b2565b6040516100d19190610c2c565b60405180910390f35b6100e26104d8565b6040516100ef9190610c68565b60405180910390f35b610112600480360381019061010d9190610c83565b6104fc565b60405161011f9190610d0a565b60405180910390f35b6101306108f7565b60405161013d9190610d46565b60405180910390f35b61014e61091d565b60405161015b9190610d82565b60405180910390f35b600260009054906101000a900473ffffffffffffffffffffffffffffffffffffffff1681565b600061019684846104fc565b9050808210156101db576040517f08c379a00000000000000000000000000000000000000000000000000000000081526004016101d290610dfa565b60405180910390fd5b60005b845181101561037d57600160009054906101000a900473ffffffffffffffffffffffffffffffffffffffff1673ffffffffffffffffffffffffffffffffffffffff166379cd492186838151811061023857610237610e1a565b5b602002602001015186848151811061025357610252610e1a565b5b6020026020010151600160009054906101000a900473ffffffffffffffffffffffffffffffffffffffff1673ffffffffffffffffffffffffffffffffffffffff16636f5528c08a87815181106102ac576102ab610e1a565b5b60200260200101516040518263ffffffff1660e01b81526004016102d09190610d0a565b602060405180830381865afa1580156102ed573d6000803e3d6000fd5b505050506040513d601f19601f820116820180604052508101906103119190610e5e565b61031b9190610eba565b6040518363ffffffff1660e01b8152600401610338929190610eee565b600060405180830381600087803b15801561035257600080fd5b505af1158015610366573d6000803e3d6000fd5b50505050808061037590610f17565b9150506101de565b50600360009054906101000a900473ffffffffffffffffffffffffffffffffffffffff1673ffffffffffffffffffffffffffffffffffffffff1663c64eedeb336040518263ffffffff1660e01b81526004016103d99190610c68565b600060405180830381600087803b1580156103f357600080fd5b505af1158015610407573d6000803e3d6000fd5b50505050600460009054906101000a900473ffffffffffffffffffffffffffffffffffffffff1673ffffffffffffffffffffffffffffffffffffffff16636892842733846040518363ffffffff1660e01b8152600401610468929190610f5f565b6020604051808303816000875af1158015610487573d6000803e3d6000fd5b505050506040513d601f19601f820116820180604052508101906104ab9190610fc0565b5050505050565b600460009054906101000a900473ffffffffffffffffffffffffffffffffffffffff1681565b60008054906101000a900473ffffffffffffffffffffffffffffffffffffffff1681565b60008151835114610542576040517f08c379a00000000000000000000000000000000000000000000000000000000081526004016105399061105f565b60405180910390fd5b60005b835181101561074257600160009054906101000a900473ffffffffffffffffffffffffffffffffffffffff1673ffffffffffffffffffffffffffffffffffffffff1663512dd0206040518163ffffffff1660e01b8152600401602060405180830381865afa1580156105bb573d6000803e3d6000fd5b505050506040513d601f19601f820116820180604052508101906105df9190610e5e565b8482815181106105f2576105f1610e1a565b5b60200260200101511061063a576040517f08c379a0000000000000000000000000000000000000000000000000000000008152600401610631906110cb565b60405180910390fd5b600160009054906101000a900473ffffffffffffffffffffffffffffffffffffffff1673ffffffffffffffffffffffffffffffffffffffff1663753999ef85838151811061068b5761068a610e1a565b5b60200260200101516040518263ffffffff1660e01b81526004016106af9190610d0a565b602060405180830381865afa1580156106cc573d6000803e3d6000fd5b505050506040513d601f19601f820116820180604052508101906106f09190610fc0565b61072f576040517f08c379a000000000000000000000000000000000000000000000000000000000815260040161072690611137565b60405180910390fd5b808061073a90610f17565b915050610545565b506000805b8451811015610851576000600160009054906101000a900473ffffffffffffffffffffffffffffffffffffffff1673ffffffffffffffffffffffffffffffffffffffff1663e75722308784815181106107a3576107a2610e1a565b5b60200260200101516040518263ffffffff1660e01b81526004016107c79190610d0a565b602060405180830381865afa1580156107e4573d6000803e3d6000fd5b505050506040513d601f19601f820116820180604052508101906108089190610e5e565b905084828151811061081d5761081c610e1a565b5b6020026020010151816108309190611157565b8361083b91906111b1565b925050808061084990610f17565b915050610747565b50600260009054906101000a900473ffffffffffffffffffffffffffffffffffffffff1673ffffffffffffffffffffffffffffffffffffffff1663fda9be17826040518263ffffffff1660e01b81526004016108ad9190610d0a565b602060405180830381865afa1580156108ca573d6000803e3d6000fd5b505050506040513d601f19601f820116820180604052508101906108ee9190610e5e565b91505092915050565b600360009054906101000a900473ffffffffffffffffffffffffffffffffffffffff1681565b600160009054906101000a900473ffffffffffffffffffffffffffffffffffffffff1681565b600073ffffffffffffffffffffffffffffffffffffffff82169050919050565b6000819050919050565b600061098861098361097e84610943565b610963565b610943565b9050919050565b600061099a8261096d565b9050919050565b60006109ac8261098f565b9050919050565b6109bc816109a1565b82525050565b60006020820190506109d760008301846109b3565b92915050565b6000604051905090565b600080fd5b600080fd5b600080fd5b6000601f19601f8301169050919050565b7f4e487b7100000000000000000000000000000000000000000000000000000000600052604160045260246000fd5b610a3f826109f6565b810181811067ffffffffffffffff82111715610a5e57610a5d610a07565b5b80604052505050565b6000610a716109dd565b9050610a7d8282610a36565b919050565b600067ffffffffffffffff821115610a9d57610a9c610a07565b5b602082029050602081019050919050565b600080fd5b6000819050919050565b610ac681610ab3565b8114610ad157600080fd5b50565b600081359050610ae381610abd565b92915050565b6000610afc610af784610a82565b610a67565b90508083825260208201905060208402830185811115610b1f57610b1e610aae565b5b835b81811015610b485780610b348882610ad4565b845260208401935050602081019050610b21565b5050509392505050565b600082601f830112610b6757610b666109f1565b5b8135610b77848260208601610ae9565b91505092915050565b600080600060608486031215610b9957610b986109e7565b5b600084013567ffffffffffffffff811115610bb757610bb66109ec565b5b610bc386828701610b52565b935050602084013567ffffffffffffffff811115610be457610be36109ec565b5b610bf086828701610b52565b9250506040610c0186828701610ad4565b9150509250925092565b6000610c168261098f565b9050919050565b610c2681610c0b565b82525050565b6000602082019050610c416000830184610c1d565b92915050565b6000610c5282610943565b9050919050565b610c6281610c47565b82525050565b6000602082019050610c7d6000830184610c59565b92915050565b60008060408385031215610c9a57610c996109e7565b5b600083013567ffffffffffffffff811115610cb857610cb76109ec565b5b610cc485828601610b52565b925050602083013567ffffffffffffffff811115610ce557610ce46109ec565b5b610cf185828601610b52565b9150509250929050565b610d0481610ab3565b82525050565b6000602082019050610d1f6000830184610cfb565b92915050565b6000610d308261098f565b9050919050565b610d4081610d25565b82525050565b6000602082019050610d5b6000830184610d37565b92915050565b6000610d6c8261098f565b9050919050565b610d7c81610d61565b82525050565b6000602082019050610d976000830184610d73565b92915050565b600082825260208201905092915050565b7f596f75206469646e742070617920656e6f756768000000000000000000000000600082015250565b6000610de4601483610d9d565b9150610def82610dae565b602082019050919050565b60006020820190508181036000830152610e1381610dd7565b9050919050565b7f4e487b7100000000000000000000000000000000000000000000000000000000600052603260045260246000fd5b600081519050610e5881610abd565b92915050565b600060208284031215610e7457610e736109e7565b5b6000610e8284828501610e49565b91505092915050565b7f4e487b7100000000000000000000000000000000000000000000000000000000600052601160045260246000fd5b6000610ec582610ab3565b9150610ed083610ab3565b925082821015610ee357610ee2610e8b565b5b828203905092915050565b6000604082019050610f036000830185610cfb565b610f106020830184610cfb565b9392505050565b6000610f2282610ab3565b91507fffffffffffffffffffffffffffffffffffffffffffffffffffffffffffffffff8203610f5457610f53610e8b565b5b600182019050919050565b6000604082019050610f746000830185610c59565b610f816020830184610cfb565b9392505050565b60008115159050919050565b610f9d81610f88565b8114610fa857600080fd5b50565b600081519050610fba81610f94565b92915050565b600060208284031215610fd657610fd56109e7565b5b6000610fe484828501610fab565b91505092915050565b7f4572726f723a204974656d20616e64207175616e7469747920636f756e74206d60008201527f69736d6174636800000000000000000000000000000000000000000000000000602082015250565b6000611049602783610d9d565b915061105482610fed565b604082019050919050565b600060208201905081810360008301526110788161103c565b9050919050565b7f496e76616c6964206974656d20696e6465780000000000000000000000000000600082015250565b60006110b5601283610d9d565b91506110c08261107f565b602082019050919050565b600060208201905081810360008301526110e4816110a8565b9050919050565b7f4974656d206f7574206f662073746f636b000000000000000000000000000000600082015250565b6000611121601183610d9d565b915061112c826110eb565b602082019050919050565b6000602082019050818103600083015261115081611114565b9050919050565b600061116282610ab3565b915061116d83610ab3565b9250817fffffffffffffffffffffffffffffffffffffffffffffffffffffffffffffffff04831182151516156111a6576111a5610e8b565b5b828202905092915050565b60006111bc82610ab3565b91506111c783610ab3565b9250827fffffffffffffffffffffffffffffffffffffffffffffffffffffffffffffffff038211156111fc576111fb610e8b565b5b82820190509291505056fea2646970667358221220dc3f1e2352e45691411557ae3e31f85ad966a057c6f693b635e5d8295653eb6164736f6c634300080d0033",
  "immutableReferences": {},
  "source": "// SPDX-License-Identifier: MIT\r\n\r\npragma solidity >=0.4.22 <0.9.0;\r\n\r\ninterface ERC20 {\r\n    // total supply of the tokens\r\n    function totalSupply() external view returns (uint256);\r\n    // balance of a particular account\r\n    function balanceOf(address account) external view returns (uint256);\r\n\r\n    function transfer(address recipient, uint256 amount) external returns (bool);\r\n    function allowance(address _owner, address _spender) external view returns (uint256);\r\n    function approve(address spender, uint256 value) external returns (bool);\r\n    function transferFrom(address sender, address recipient, uint256 amount) external returns (bool);\r\n    \r\n}\r\n\r\ncontract FastCoin is ERC20 {\r\n    string public name = \"FastCoin\";\r\n    string public symbol = \"FC\";\r\n    \r\n    address public cafe;\r\n    uint256 public totalTokenSupply = 1000000 * (10**18);\r\n\r\n    // which address has how many tokens\r\n    mapping(address => uint256) public balances;\r\n\r\n    // which address has allowed which address to spend how many tokens\r\n    mapping(address => mapping(address => uint256)) public allowances;\r\n\r\n    constructor() {\r\n        cafe = msg.sender;\r\n        // give half of the tokens to the owner\r\n        balances[cafe] = totalTokenSupply;\r\n    }\r\n\r\n    // total supply of the tokens\r\n    function totalSupply() external view override returns (uint256) {\r\n        return totalTokenSupply;\r\n    }\r\n\r\n    // balance of a particular account\r\n    function balanceOf(address account) external view override returns (uint256) {\r\n        return balances[account];\r\n    }\r\n\r\n    function getTokens() external payable{\r\n        //1 eth = 100 FC\r\n        payable(cafe).transfer(msg.value);\r\n        uint256 tokensToSend = (msg.value/1 ether)*100;\r\n        balances[msg.sender] += tokensToSend;\r\n        balances[cafe] -= tokensToSend;\r\n    }\r\n\r\n    function transferToCafe(address customer, uint256 amount) external returns (bool){\r\n        require(balances[customer]>=amount, \"Insufficient Funds\");\r\n        balances[customer] -= amount;\r\n        balances[cafe] += amount;\r\n        return true;\r\n    }\r\n\r\n    function transferFromCafe(address customer, uint256 amount) external returns (bool){\r\n        require(balances[cafe]>=amount, \"Insufficient Funds\");\r\n        balances[cafe] -= amount;\r\n        balances[customer] += amount;\r\n        return true;\r\n    }\r\n\r\n    // transfer tokens from the contract invoker to the recipient\r\n    function transfer(address recipient,uint256 amount) external returns (bool){\r\n        require(balances[msg.sender] >= amount, \"You dont have enough balance to transfer the amount\");\r\n        balances[msg.sender] -= amount;\r\n        balances[recipient] += amount;\r\n        return true;\r\n    }\r\n\r\n    function approve(address spender,uint256 value) external returns (bool) {\r\n        require(balances[msg.sender] >= value, \"You dont have enough balance to set the allowance amount\");\r\n        allowances[msg.sender][spender] = value;\r\n        return true;    \r\n    }\r\n\r\n    // check the allowance and its availablity\r\n    function allowance(address _owner, address _spender) external view returns (uint256){\r\n        return allowances[_owner][_spender];\r\n    }\r\n\r\n    function transferFrom(address sender,address recipient,uint256 amount) external returns (bool) {\r\n        // sender should have enough balance to spend\r\n        require(balances[sender] >= amount, \"The sender balance is less than the amount\");\r\n        require(allowances[sender][msg.sender] >= amount, \"The allowance for contract invoker is less than the amount\");\r\n\r\n        // cut balance from sender and add to reciepent\r\n        balances[sender] -= amount;\r\n        balances[recipient] += amount;\r\n\r\n        allowances[sender][msg.sender] -= amount;\r\n\r\n        return true;\r\n    }\r\n\r\n}\r\n\r\ncontract MenuManagement{\r\n    // state variables (stored directly on the blockchain)\r\n    address public owner;\r\n\r\n    // called only once when the smart contract is deployed to the blockchain\r\n    constructor() {\r\n        owner = msg.sender;\r\n    }\r\n\r\n    struct MenuItem {\r\n        string itemName;\r\n        uint256 quantity;\r\n        uint256 price;\r\n    }\r\n\r\n    // array to store menu items\r\n    MenuItem[] public menuItems;\r\n\r\n    function getItemsCount() public view returns (uint256) {\r\n        return menuItems.length;\r\n    }\r\n\r\n    modifier onlyOwner{\r\n        require(msg.sender == owner);\r\n        _;\r\n    }\r\n\r\n    modifier indexCheck(uint256 _index){\r\n        require(_index < menuItems.length, \"Invalid index\");\r\n        _;\r\n\r\n    }\r\n\r\n    function addItem(string memory _itemName, uint256 _itemQuantity, uint256 _itemPrice) public onlyOwner{\r\n        menuItems.push(MenuItem(_itemName, _itemQuantity, _itemPrice));\r\n    }\r\n\r\n    function updatePrice(uint256 _index, uint256 _itemPrice) public onlyOwner indexCheck(_index){\r\n        // multiply by 1 ether to convert to wei\r\n        menuItems[_index].price = _itemPrice;\r\n    }\r\n\r\n    function getPrice(uint256 _index) public view indexCheck(_index) returns (uint256){\r\n        // divide by 1 ether to convert to ether\r\n        return menuItems[_index].price;\r\n    }\r\n\r\n    function updateQuantity(uint256 _index, uint256 _itemQuantity) public indexCheck(_index){\r\n        menuItems[_index].quantity = _itemQuantity;\r\n    }\r\n\r\n    function getItemQuantity(uint256 _index) public view indexCheck(_index) returns (uint256) {\r\n        return menuItems[_index].quantity;\r\n    }\r\n\r\n    function checkAvailability(uint256 _index) public view indexCheck(_index) returns (bool) {\r\n        // available if quantity is more than 0\r\n        return (menuItems[_index].quantity > 0);\r\n    }\r\n\r\n\r\n}\r\n\r\ncontract promotions{\r\n\r\n    uint256 public discount;\r\n    address public owner;\r\n\r\n\r\n    constructor() {\r\n        owner = msg.sender;\r\n    }\r\n\r\n    modifier onlyOwner{\r\n        require(msg.sender == owner);\r\n        _;\r\n    }\r\n\r\n    function setDiscount(uint256 disc) public onlyOwner{\r\n        discount = disc;\r\n    } \r\n\r\n    function applyDiscount(uint256 amount) public view returns (uint256){\r\n        return (amount * (100 - discount)) / 100;\r\n    }\r\n    \r\n}\r\n\r\ncontract RewardsLoyalty{\r\n    mapping(address => uint256) public loyaltyTokens;\r\n    FastCoin public fc;\r\n    address public owner;\r\n    \r\n    constructor(FastCoin _fc){\r\n        owner = msg.sender;\r\n        fc = _fc;\r\n    }\r\n\r\n    function incTokens(address _customer) public {\r\n        //10 loyalty points given for each purchase\r\n        loyaltyTokens[_customer]+=10;\r\n    }\r\n\r\n    function redeemPrize() public{\r\n        uint256 prize = loyaltyTokens[msg.sender]/10;\r\n        loyaltyTokens[msg.sender] = 0;\r\n        fc.transferFromCafe(msg.sender, prize);\r\n    }\r\n\r\n}\r\n\r\ncontract OrderContract{\r\n    address public owner; \r\n    MenuManagement public mm;\r\n    promotions public pr;\r\n    RewardsLoyalty public rl;\r\n    FastCoin public fc;\r\n\r\n    constructor(MenuManagement _mm, promotions _pr, RewardsLoyalty _rl, FastCoin _fc) {\r\n        owner = msg.sender;\r\n        mm = _mm;\r\n        pr = _pr;\r\n        rl = _rl;\r\n        fc = _fc;\r\n    }\r\n\r\n    function calculateOrderAmount(uint256[] memory _itemIndexes, uint256[] memory _quantities) public view returns (uint256){\r\n        require(_itemIndexes.length == _quantities.length, \"Error: Item and quantity count mismatch\");\r\n        \r\n        // check for an invalid item index and availability\r\n        for (uint256 i = 0; i < _itemIndexes.length; i++) {\r\n            require(_itemIndexes[i] < mm.getItemsCount(), \"Invalid item index\");\r\n            require(mm.checkAvailability(_itemIndexes[i]), \"Item out of stock\");\r\n        }\r\n\r\n        uint256 totalAmount = 0;\r\n\r\n        for (uint256 i = 0; i < _itemIndexes.length; i++) {\r\n            uint256 itemPrice = mm.getPrice(_itemIndexes[i]);\r\n            totalAmount += itemPrice * _quantities[i];\r\n        }\r\n        //returning discounted value\r\n        return  pr.applyDiscount(totalAmount);\r\n    }\r\n\r\n\r\n    function placeOrder(uint256[] memory _itemIndexes, uint256[] memory _quantities, uint payment) public{\r\n        uint256 totalAmount = calculateOrderAmount(_itemIndexes, _quantities);\r\n        require(payment >= totalAmount, \"You didnt pay enough\");\r\n\r\n        for (uint256 i = 0; i < _itemIndexes.length; i++) {\r\n            mm.updateQuantity(_itemIndexes[i], mm.getItemQuantity(_itemIndexes[i]) - _quantities[i]);\r\n        }\r\n\r\n        rl.incTokens(msg.sender);\r\n        fc.transferToCafe(msg.sender, payment);\r\n    }\r\n\r\n\r\n}",
  "sourcePath": "/Users/umarwaseem/Desktop/bchain-project-2/Cafeteria-System-Decentralized/truffle_smart_contracts/contracts/Project.sol",
  "compiler": {
    "name": "solc",
    "version": "0.8.13+commit.abaa5c0e.Emscripten.clang"
  },
  "schemaVersion": "3.4.16",
  "updatedAt": "2024-01-06T13:38:23.124Z",
  "networkType": "ethereum",
  "devdoc": {
    "kind": "dev",
    "methods": {},
    "version": 1
  },
  "userdoc": {
    "kind": "user",
    "methods": {},
    "version": 1
  }
}