{
  "contractName": "OrderContract",
  "abi": [
    {
      "inputs": [
        {
          "internalType": "contract MenuManagement",
          "name": "_menuManagementInstance",
          "type": "address"
        }
      ],
      "stateMutability": "nonpayable",
      "type": "constructor"
    },
    {
      "inputs": [],
      "name": "menuManagementInstance",
      "outputs": [
        {
          "internalType": "contract MenuManagement",
          "name": "",
          "type": "address"
        }
      ],
      "stateMutability": "view",
      "type": "function",
      "constant": true
    },
    {
      "inputs": [],
      "name": "owner",
      "outputs": [
        {
          "internalType": "address",
          "name": "",
          "type": "address"
        }
      ],
      "stateMutability": "view",
      "type": "function",
      "constant": true
    },
    {
      "inputs": [
        {
          "internalType": "uint256[]",
          "name": "_itemIndexes",
          "type": "uint256[]"
        },
        {
          "internalType": "uint256[]",
          "name": "_quantities",
          "type": "uint256[]"
        }
      ],
      "name": "calculateOrderAmount",
      "outputs": [
        {
          "internalType": "uint256",
          "name": "",
          "type": "uint256"
        }
      ],
      "stateMutability": "view",
      "type": "function",
      "constant": true
    },
    {
      "inputs": [
        {
          "internalType": "uint256[]",
          "name": "_itemIndexes",
          "type": "uint256[]"
        },
        {
          "internalType": "uint256[]",
          "name": "_quantities",
          "type": "uint256[]"
        }
      ],
      "name": "placeOrder",
      "outputs": [],
      "stateMutability": "payable",
      "type": "function",
      "payable": true
    }
  ],
  "bytecode": "0x608060405234801561000f575f80fd5b50604051610cc6380380610cc683398181016040528101906100319190610125565b335f806101000a81548173ffffffffffffffffffffffffffffffffffffffff021916908373ffffffffffffffffffffffffffffffffffffffff1602179055508060015f6101000a81548173ffffffffffffffffffffffffffffffffffffffff021916908373ffffffffffffffffffffffffffffffffffffffff16021790555050610150565b5f80fd5b5f73ffffffffffffffffffffffffffffffffffffffff82169050919050565b5f6100e3826100ba565b9050919050565b5f6100f4826100d9565b9050919050565b610104816100ea565b811461010e575f80fd5b50565b5f8151905061011f816100fb565b92915050565b5f6020828403121561013a576101396100b6565b5b5f61014784828501610111565b91505092915050565b610b698061015d5f395ff3fe60806040526004361061003e575f3560e01c806349354bea146100425780638da5cb5b1461006c578063939dbea9146100965780639aff51c6146100d2575b5f80fd5b34801561004d575f80fd5b506100566100ee565b60405161006391906105ed565b60405180910390f35b348015610077575f80fd5b50610080610113565b60405161008d9190610626565b60405180910390f35b3480156100a1575f80fd5b506100bc60048036038101906100b791906107d3565b610136565b6040516100c99190610858565b60405180910390f35b6100ec60048036038101906100e791906107d3565b6103b4565b005b60015f9054906101000a900473ffffffffffffffffffffffffffffffffffffffff1681565b5f8054906101000a900473ffffffffffffffffffffffffffffffffffffffff1681565b5f815183511461017b576040517f08c379a0000000000000000000000000000000000000000000000000000000008152600401610172906108f1565b60405180910390fd5b5f5b83518110156102825760015f9054906101000a900473ffffffffffffffffffffffffffffffffffffffff1673ffffffffffffffffffffffffffffffffffffffff1663512dd0206040518163ffffffff1660e01b8152600401602060405180830381865afa1580156101f0573d5f803e3d5ffd5b505050506040513d601f19601f820116820180604052508101906102149190610923565b8482815181106102275761022661094e565b5b60200260200101511061026f576040517f08c379a0000000000000000000000000000000000000000000000000000000008152600401610266906109c5565b60405180910390fd5b808061027a90610a10565b91505061017d565b505f805b8451811015610396575f8582815181106102a3576102a261094e565b5b602002602001015190505f8583815181106102c1576102c061094e565b5b602002602001015190505f60015f9054906101000a900473ffffffffffffffffffffffffffffffffffffffff1673ffffffffffffffffffffffffffffffffffffffff16634c4df870846040518263ffffffff1660e01b81526004016103269190610858565b602060405180830381865afa158015610341573d5f803e3d5ffd5b505050506040513d601f19601f820116820180604052508101906103659190610923565b905081816103739190610a57565b8561037e9190610a98565b9450505050808061038e90610a10565b915050610286565b50670de0b6b3a7640000816103ab9190610a57565b91505092915050565b5f5b82518110156104bb5760015f9054906101000a900473ffffffffffffffffffffffffffffffffffffffff1673ffffffffffffffffffffffffffffffffffffffff1663512dd0206040518163ffffffff1660e01b8152600401602060405180830381865afa158015610429573d5f803e3d5ffd5b505050506040513d601f19601f8201168201806040525081019061044d9190610923565b8382815181106104605761045f61094e565b5b6020026020010151106104a8576040517f08c379a000000000000000000000000000000000000000000000000000000000815260040161049f906108f1565b60405180910390fd5b80806104b390610a10565b9150506103b6565b505f6104c78383610136565b905080341461050b576040517f08c379a000000000000000000000000000000000000000000000000000000000815260040161050290610b15565b60405180910390fd5b5f8054906101000a900473ffffffffffffffffffffffffffffffffffffffff1673ffffffffffffffffffffffffffffffffffffffff166108fc8290811502906040515f60405180830381858888f1935050505015801561056d573d5f803e3d5ffd5b50505050565b5f73ffffffffffffffffffffffffffffffffffffffff82169050919050565b5f819050919050565b5f6105b56105b06105ab84610573565b610592565b610573565b9050919050565b5f6105c68261059b565b9050919050565b5f6105d7826105bc565b9050919050565b6105e7816105cd565b82525050565b5f6020820190506106005f8301846105de565b92915050565b5f61061082610573565b9050919050565b61062081610606565b82525050565b5f6020820190506106395f830184610617565b92915050565b5f604051905090565b5f80fd5b5f80fd5b5f80fd5b5f601f19601f8301169050919050565b7f4e487b71000000000000000000000000000000000000000000000000000000005f52604160045260245ffd5b61069a82610654565b810181811067ffffffffffffffff821117156106b9576106b8610664565b5b80604052505050565b5f6106cb61063f565b90506106d78282610691565b919050565b5f67ffffffffffffffff8211156106f6576106f5610664565b5b602082029050602081019050919050565b5f80fd5b5f819050919050565b61071d8161070b565b8114610727575f80fd5b50565b5f8135905061073881610714565b92915050565b5f61075061074b846106dc565b6106c2565b9050808382526020820190506020840283018581111561077357610772610707565b5b835b8181101561079c5780610788888261072a565b845260208401935050602081019050610775565b5050509392505050565b5f82601f8301126107ba576107b9610650565b5b81356107ca84826020860161073e565b91505092915050565b5f80604083850312156107e9576107e8610648565b5b5f83013567ffffffffffffffff8111156108065761080561064c565b5b610812858286016107a6565b925050602083013567ffffffffffffffff8111156108335761083261064c565b5b61083f858286016107a6565b9150509250929050565b6108528161070b565b82525050565b5f60208201905061086b5f830184610849565b92915050565b5f82825260208201905092915050565b7f4572726f723a204974656d20616e64207175616e7469747920636f756e74206d5f8201527f69736d6174636800000000000000000000000000000000000000000000000000602082015250565b5f6108db602783610871565b91506108e682610881565b604082019050919050565b5f6020820190508181035f830152610908816108cf565b9050919050565b5f8151905061091d81610714565b92915050565b5f6020828403121561093857610937610648565b5b5f6109458482850161090f565b91505092915050565b7f4e487b71000000000000000000000000000000000000000000000000000000005f52603260045260245ffd5b7f496e76616c6964206974656d20696e64657800000000000000000000000000005f82015250565b5f6109af601283610871565b91506109ba8261097b565b602082019050919050565b5f6020820190508181035f8301526109dc816109a3565b9050919050565b7f4e487b71000000000000000000000000000000000000000000000000000000005f52601160045260245ffd5b5f610a1a8261070b565b91507fffffffffffffffffffffffffffffffffffffffffffffffffffffffffffffffff8203610a4c57610a4b6109e3565b5b600182019050919050565b5f610a618261070b565b9150610a6c8361070b565b9250828202610a7a8161070b565b91508282048414831517610a9157610a906109e3565b5b5092915050565b5f610aa28261070b565b9150610aad8361070b565b9250828201905080821115610ac557610ac46109e3565b5b92915050565b7f596f75206469646e742070617920656e6f7567680000000000000000000000005f82015250565b5f610aff601483610871565b9150610b0a82610acb565b602082019050919050565b5f6020820190508181035f830152610b2c81610af3565b905091905056fea264697066735822122001304ddf1326fbc166e8f47ee6ad4e645f4a9cda30c3e67d282cb0cfcb178cba64736f6c63430008150033",
  "immutableReferences": {},
  "source": "// SPDX-License-Identifier: MIT\r\n\r\n// Facilitates the order processing system, allowing users\r\n// to select items, specify quantities, and place orders. This contract calls functions from the\r\n// menu management contract to retrieve item details and calculates the total order amount.\r\n\r\npragma solidity ^0.8.17;\r\n\r\nimport \"./MenuManagement.sol\";\r\n\r\ncontract OrderContract{\r\n    address public owner; \r\n    MenuManagement public menuManagementInstance;\r\n\r\n    constructor(MenuManagement _menuManagementInstance) {\r\n        owner = msg.sender;\r\n        menuManagementInstance = _menuManagementInstance;\r\n    }\r\n\r\n    // to check how much u have to pay\r\n    function calculateOrderAmount(uint256[] memory _itemIndexes, uint256[] memory _quantities) public view returns (uint256){\r\n        require(_itemIndexes.length == _quantities.length, \"Error: Item and quantity count mismatch\");\r\n        // check for an invalid item index\r\n        for (uint256 i = 0; i < _itemIndexes.length; i++) {\r\n            require(_itemIndexes[i] < menuManagementInstance.getItemsCount(), \"Invalid item index\");\r\n        }\r\n        uint256 totalAmount = 0;\r\n        for (uint256 i = 0; i < _itemIndexes.length; i++) {\r\n            uint256 itemIndex = _itemIndexes[i];\r\n            uint256 quantity = _quantities[i];\r\n            uint256 itemPrice = menuManagementInstance.getItemPrice(itemIndex);\r\n            totalAmount += itemPrice * quantity;\r\n        }\r\n        return totalAmount * (10**18);\r\n    }\r\n\r\n    // to actually place an order if youre not broke\r\n    function placeOrder(uint256[] memory _itemIndexes, uint256[] memory _quantities) public payable {\r\n        // check for an invalid item index\r\n        for (uint256 i = 0; i < _itemIndexes.length; i++) {\r\n            require(_itemIndexes[i] < menuManagementInstance.getItemsCount(), \"Error: Item and quantity count mismatch\");\r\n        }\r\n        uint256 totalAmount = calculateOrderAmount(_itemIndexes, _quantities);\r\n        require(msg.value == totalAmount, \"You didnt pay enough\");\r\n        payable(owner).transfer(totalAmount);\r\n    }\r\n\r\n\r\n}",
  "sourcePath": "D:\\Study\\Blockchain\\Cafeteria-System-Decentralized\\truffle_smart_contracts\\contracts\\OrderContract.sol",
  "compiler": {
    "name": "solc",
    "version": "0.8.21+commit.d9974bed.Emscripten.clang"
  },
  "schemaVersion": "3.4.16",
  "updatedAt": "2023-12-13T10:43:41.544Z",
  "networkType": "ethereum",
  "devdoc": {
    "kind": "dev",
    "methods": {},
    "version": 1
  },
  "userdoc": {
    "kind": "user",
    "methods": {},
    "version": 1
  }
}