{
  "contractName": "RewardsLoyalty",
  "abi": [
    {
      "inputs": [
        {
          "internalType": "contract FastCoin",
          "name": "_fc",
          "type": "address"
        }
      ],
      "stateMutability": "nonpayable",
      "type": "constructor"
    },
    {
      "inputs": [],
      "name": "fc",
      "outputs": [
        {
          "internalType": "contract FastCoin",
          "name": "",
          "type": "address"
        }
      ],
      "stateMutability": "view",
      "type": "function",
      "constant": true
    },
    {
      "inputs": [
        {
          "internalType": "address",
          "name": "",
          "type": "address"
        }
      ],
      "name": "loyaltyTokens",
      "outputs": [
        {
          "internalType": "uint256",
          "name": "",
          "type": "uint256"
        }
      ],
      "stateMutability": "view",
      "type": "function",
      "constant": true
    },
    {
      "inputs": [],
      "name": "owner",
      "outputs": [
        {
          "internalType": "address",
          "name": "",
          "type": "address"
        }
      ],
      "stateMutability": "view",
      "type": "function",
      "constant": true
    },
    {
      "inputs": [
        {
          "internalType": "address",
          "name": "_customer",
          "type": "address"
        }
      ],
      "name": "incTokens",
      "outputs": [],
      "stateMutability": "nonpayable",
      "type": "function"
    },
    {
      "inputs": [],
      "name": "redeemPrize",
      "outputs": [],
      "stateMutability": "nonpayable",
      "type": "function"
    }
  ],
  "bytecode": "0x608060405234801561001057600080fd5b5060405161075e38038061075e8339818101604052810190610032919061012f565b33600260006101000a81548173ffffffffffffffffffffffffffffffffffffffff021916908373ffffffffffffffffffffffffffffffffffffffff16021790555080600160006101000a81548173ffffffffffffffffffffffffffffffffffffffff021916908373ffffffffffffffffffffffffffffffffffffffff1602179055505061015c565b600080fd5b600073ffffffffffffffffffffffffffffffffffffffff82169050919050565b60006100ea826100bf565b9050919050565b60006100fc826100df565b9050919050565b61010c816100f1565b811461011757600080fd5b50565b60008151905061012981610103565b92915050565b600060208284031215610145576101446100ba565b5b60006101538482850161011a565b91505092915050565b6105f38061016b6000396000f3fe608060405234801561001057600080fd5b50600436106100575760003560e01c806354f6a4271461005c57806381f4be5e1461008c5780638da5cb5b146100aa578063c64eedeb146100c8578063d2ac021a146100e4575b600080fd5b61007660048036038101906100719190610345565b6100ee565b604051610083919061038b565b60405180910390f35b610094610106565b6040516100a19190610405565b60405180910390f35b6100b261012c565b6040516100bf919061042f565b60405180910390f35b6100e260048036038101906100dd9190610345565b610152565b005b6100ec6101ab565b005b60006020528060005260406000206000915090505481565b600160009054906101000a900473ffffffffffffffffffffffffffffffffffffffff1681565b600260009054906101000a900473ffffffffffffffffffffffffffffffffffffffff1681565b600a6000808373ffffffffffffffffffffffffffffffffffffffff1673ffffffffffffffffffffffffffffffffffffffff16815260200190815260200160002060008282546101a19190610479565b9250508190555050565b6000600a6000803373ffffffffffffffffffffffffffffffffffffffff1673ffffffffffffffffffffffffffffffffffffffff168152602001908152602001600020546101f891906104fe565b905060008060003373ffffffffffffffffffffffffffffffffffffffff1673ffffffffffffffffffffffffffffffffffffffff16815260200190815260200160002081905550600160009054906101000a900473ffffffffffffffffffffffffffffffffffffffff1673ffffffffffffffffffffffffffffffffffffffff166399a22dcc33836040518363ffffffff1660e01b815260040161029b92919061052f565b6020604051808303816000875af11580156102ba573d6000803e3d6000fd5b505050506040513d601f19601f820116820180604052508101906102de9190610590565b5050565b600080fd5b600073ffffffffffffffffffffffffffffffffffffffff82169050919050565b6000610312826102e7565b9050919050565b61032281610307565b811461032d57600080fd5b50565b60008135905061033f81610319565b92915050565b60006020828403121561035b5761035a6102e2565b5b600061036984828501610330565b91505092915050565b6000819050919050565b61038581610372565b82525050565b60006020820190506103a0600083018461037c565b92915050565b6000819050919050565b60006103cb6103c66103c1846102e7565b6103a6565b6102e7565b9050919050565b60006103dd826103b0565b9050919050565b60006103ef826103d2565b9050919050565b6103ff816103e4565b82525050565b600060208201905061041a60008301846103f6565b92915050565b61042981610307565b82525050565b60006020820190506104446000830184610420565b92915050565b7f4e487b7100000000000000000000000000000000000000000000000000000000600052601160045260246000fd5b600061048482610372565b915061048f83610372565b9250827fffffffffffffffffffffffffffffffffffffffffffffffffffffffffffffffff038211156104c4576104c361044a565b5b828201905092915050565b7f4e487b7100000000000000000000000000000000000000000000000000000000600052601260045260246000fd5b600061050982610372565b915061051483610372565b925082610524576105236104cf565b5b828204905092915050565b60006040820190506105446000830185610420565b610551602083018461037c565b9392505050565b60008115159050919050565b61056d81610558565b811461057857600080fd5b50565b60008151905061058a81610564565b92915050565b6000602082840312156105a6576105a56102e2565b5b60006105b48482850161057b565b9150509291505056fea2646970667358221220941884af49a8df57357248287fe0a461b5a32866aec57a51a917f54e402bea3164736f6c634300080d0033",
  "immutableReferences": {},
  "source": "// SPDX-License-Identifier: MIT\r\n\r\npragma solidity >=0.4.22 <0.9.0;\r\n\r\ninterface ERC20 {\r\n    // total supply of the tokens\r\n    function totalSupply() external view returns (uint256);\r\n\r\n    // balance of a particular account\r\n    function balanceOf(address account) external view returns (uint256);\r\n\r\n    function transfer(\r\n        address recipient,\r\n        uint256 amount\r\n    ) external returns (bool);\r\n\r\n    function allowance(\r\n        address _owner,\r\n        address _spender\r\n    ) external view returns (uint256);\r\n\r\n    function approve(address spender, uint256 value) external returns (bool);\r\n\r\n    function transferFrom(\r\n        address sender,\r\n        address recipient,\r\n        uint256 amount\r\n    ) external returns (bool);\r\n}\r\n\r\ncontract FastCoin is ERC20 {\r\n    string public name = \"FastCoin\";\r\n    string public symbol = \"FC\";\r\n\r\n    address public cafe;\r\n    uint256 public totalTokenSupply = 1000000 * (10 ** 18);\r\n\r\n    // which address has how many tokens\r\n    mapping(address => uint256) public balances;\r\n\r\n    // which address has allowed which address to spend how many tokens\r\n    mapping(address => mapping(address => uint256)) public allowances;\r\n\r\n    constructor() {\r\n        cafe = msg.sender;\r\n        // give half of the tokens to the owner\r\n        balances[cafe] = totalTokenSupply;\r\n    }\r\n\r\n    // total supply of the tokens\r\n    function totalSupply() external view override returns (uint256) {\r\n        return totalTokenSupply;\r\n    }\r\n\r\n    // balance of a particular account\r\n    function balanceOf(\r\n        address account\r\n    ) external view override returns (uint256) {\r\n        return balances[account];\r\n    }\r\n\r\n    function getTokens() external payable {\r\n        //1 eth = 100 FC\r\n        payable(cafe).transfer(msg.value);\r\n        uint256 tokensToSend = (msg.value / 1 ether) * 100;\r\n        balances[msg.sender] += tokensToSend;\r\n        balances[cafe] -= tokensToSend;\r\n    }\r\n\r\n    function transferToCafe(\r\n        address customer,\r\n        uint256 amount\r\n    ) external returns (bool) {\r\n        require(balances[customer] >= amount, \"Insufficient Funds\");\r\n        balances[customer] -= amount;\r\n        balances[cafe] += amount;\r\n        return true;\r\n    }\r\n\r\n    function transferFromCafe(\r\n        address customer,\r\n        uint256 amount\r\n    ) external returns (bool) {\r\n        require(balances[cafe] >= amount, \"Insufficient Funds\");\r\n        balances[cafe] -= amount;\r\n        balances[customer] += amount;\r\n        return true;\r\n    }\r\n\r\n    // transfer tokens from the contract invoker to the recipient\r\n    function transfer(\r\n        address recipient,\r\n        uint256 amount\r\n    ) external returns (bool) {\r\n        require(\r\n            balances[msg.sender] >= amount,\r\n            \"You dont have enough balance to transfer the amount\"\r\n        );\r\n        balances[msg.sender] -= amount;\r\n        balances[recipient] += amount;\r\n        return true;\r\n    }\r\n\r\n    function approve(address spender, uint256 value) external returns (bool) {\r\n        require(\r\n            balances[msg.sender] >= value,\r\n            \"You dont have enough balance to set the allowance amount\"\r\n        );\r\n        allowances[msg.sender][spender] = value;\r\n        return true;\r\n    }\r\n\r\n    // check the allowance and its availablity\r\n    function allowance(\r\n        address _owner,\r\n        address _spender\r\n    ) external view returns (uint256) {\r\n        return allowances[_owner][_spender];\r\n    }\r\n\r\n    function transferFrom(\r\n        address sender,\r\n        address recipient,\r\n        uint256 amount\r\n    ) external returns (bool) {\r\n        // sender should have enough balance to spend\r\n        require(\r\n            balances[sender] >= amount,\r\n            \"The sender balance is less than the amount\"\r\n        );\r\n        require(\r\n            allowances[sender][msg.sender] >= amount,\r\n            \"The allowance for contract invoker is less than the amount\"\r\n        );\r\n\r\n        // cut balance from sender and add to reciepent\r\n        balances[sender] -= amount;\r\n        balances[recipient] += amount;\r\n\r\n        allowances[sender][msg.sender] -= amount;\r\n\r\n        return true;\r\n    }\r\n}\r\n\r\ncontract MenuManagement {\r\n    // state variables (stored directly on the blockchain)\r\n    address public owner;\r\n\r\n    // called only once when the smart contract is deployed to the blockchain\r\n    constructor() {\r\n        owner = msg.sender;\r\n    }\r\n\r\n    struct MenuItem {\r\n        string itemName;\r\n        uint256 quantity;\r\n        uint256 price;\r\n    }\r\n\r\n    // array to store menu items\r\n    MenuItem[] public menuItems;\r\n\r\n    function getItemsCount() public view returns (uint256) {\r\n        return menuItems.length;\r\n    }\r\n\r\n    modifier onlyOwner() {\r\n        require(msg.sender == owner);\r\n        _;\r\n    }\r\n\r\n    modifier indexCheck(uint256 _index) {\r\n        require(_index < menuItems.length, \"Invalid index\");\r\n        _;\r\n    }\r\n\r\n    function addItem(\r\n        string memory _itemName,\r\n        uint256 _itemQuantity,\r\n        uint256 _itemPrice\r\n    ) public onlyOwner {\r\n        menuItems.push(MenuItem(_itemName, _itemQuantity, _itemPrice));\r\n    }\r\n\r\n    function updatePrice(\r\n        uint256 _index,\r\n        uint256 _itemPrice\r\n    ) public onlyOwner indexCheck(_index) {\r\n        // multiply by 1 ether to convert to wei\r\n        menuItems[_index].price = _itemPrice;\r\n    }\r\n\r\n    function getPrice(\r\n        uint256 _index\r\n    ) public view indexCheck(_index) returns (uint256) {\r\n        // divide by 1 ether to convert to ether\r\n        return menuItems[_index].price;\r\n    }\r\n\r\n    function updateQuantity(\r\n        uint256 _index,\r\n        uint256 _itemQuantity\r\n    ) public indexCheck(_index) {\r\n        menuItems[_index].quantity = _itemQuantity;\r\n    }\r\n\r\n    function getItemQuantity(\r\n        uint256 _index\r\n    ) public view indexCheck(_index) returns (uint256) {\r\n        return menuItems[_index].quantity;\r\n    }\r\n\r\n    function checkAvailability(\r\n        uint256 _index\r\n    ) public view indexCheck(_index) returns (bool) {\r\n        // available if quantity is more than 0\r\n        return (menuItems[_index].quantity > 0);\r\n    }\r\n\r\n    function getAllItemNames() public view returns (string[] memory) {\r\n        string[] memory itemNames = new string[](menuItems.length);\r\n        for (uint256 i = 0; i < menuItems.length; i++) {\r\n            itemNames[i] = menuItems[i].itemName;\r\n        }\r\n        return itemNames;\r\n    }\r\n\r\n    function getAllItemPrices() public view returns (uint256[] memory) {\r\n        uint256[] memory itemPrices = new uint256[](menuItems.length);\r\n        for (uint256 i = 0; i < menuItems.length; i++) {\r\n            itemPrices[i] = menuItems[i].price;\r\n        }\r\n        return itemPrices;\r\n    }\r\n\r\n    function getAllItemQuantities() public view returns (uint256[] memory) {\r\n        uint256[] memory itemQuantities = new uint256[](menuItems.length);\r\n        for (uint256 i = 0; i < menuItems.length; i++) {\r\n            itemQuantities[i] = menuItems[i].quantity;\r\n        }\r\n        return itemQuantities;\r\n    }\r\n}\r\n\r\ncontract promotions {\r\n    uint256 public discount;\r\n    address public owner;\r\n\r\n    constructor() {\r\n        owner = msg.sender;\r\n    }\r\n\r\n    modifier onlyOwner() {\r\n        require(msg.sender == owner);\r\n        _;\r\n    }\r\n\r\n    function setDiscount(uint256 disc) public onlyOwner {\r\n        discount = disc;\r\n    }\r\n\r\n    function applyDiscount(uint256 amount) public view returns (uint256) {\r\n        return (amount * (100 - discount)) / 100;\r\n    }\r\n}\r\n\r\ncontract RewardsLoyalty {\r\n    mapping(address => uint256) public loyaltyTokens;\r\n    FastCoin public fc;\r\n    address public owner;\r\n\r\n    constructor(FastCoin _fc) {\r\n        owner = msg.sender;\r\n        fc = _fc;\r\n    }\r\n\r\n    function incTokens(address _customer) public {\r\n        //10 loyalty points given for each purchase\r\n        loyaltyTokens[_customer] += 10;\r\n    }\r\n\r\n    function redeemPrize() public {\r\n        uint256 prize = loyaltyTokens[msg.sender] / 10;\r\n        loyaltyTokens[msg.sender] = 0;\r\n        fc.transferFromCafe(msg.sender, prize);\r\n    }\r\n}\r\n\r\ncontract OrderContract {\r\n    address public owner;\r\n    MenuManagement public mm;\r\n    promotions public pr;\r\n    RewardsLoyalty public rl;\r\n    FastCoin public fc;\r\n\r\n    constructor(\r\n        MenuManagement _mm,\r\n        promotions _pr,\r\n        RewardsLoyalty _rl,\r\n        FastCoin _fc\r\n    ) {\r\n        owner = msg.sender;\r\n        mm = _mm;\r\n        pr = _pr;\r\n        rl = _rl;\r\n        fc = _fc;\r\n    }\r\n\r\n    function calculateOrderAmount(\r\n        uint256[] memory _itemIndexes,\r\n        uint256[] memory _quantities\r\n    ) public view returns (uint256) {\r\n        require(\r\n            _itemIndexes.length == _quantities.length,\r\n            \"Error: Item and quantity count mismatch\"\r\n        );\r\n\r\n        // check for an invalid item index and availability\r\n        for (uint256 i = 0; i < _itemIndexes.length; i++) {\r\n            require(_itemIndexes[i] < mm.getItemsCount(), \"Invalid item index\");\r\n            require(mm.checkAvailability(_itemIndexes[i]), \"Item out of stock\");\r\n        }\r\n\r\n        uint256 totalAmount = 0;\r\n\r\n        for (uint256 i = 0; i < _itemIndexes.length; i++) {\r\n            uint256 itemPrice = mm.getPrice(_itemIndexes[i]);\r\n            totalAmount += itemPrice * _quantities[i];\r\n        }\r\n        //returning discounted value\r\n        return pr.applyDiscount(totalAmount);\r\n    }\r\n\r\n    function placeOrder(\r\n        uint256[] memory _itemIndexes,\r\n        uint256[] memory _quantities,\r\n        uint payment\r\n    ) public {\r\n        uint256 totalAmount = calculateOrderAmount(_itemIndexes, _quantities);\r\n        require(payment >= totalAmount, \"You didnt pay enough\");\r\n\r\n        for (uint256 i = 0; i < _itemIndexes.length; i++) {\r\n            mm.updateQuantity(\r\n                _itemIndexes[i],\r\n                mm.getItemQuantity(_itemIndexes[i]) - _quantities[i]\r\n            );\r\n        }\r\n\r\n        rl.incTokens(msg.sender);\r\n        fc.transferToCafe(msg.sender, payment);\r\n    }\r\n}\r\n",
  "sourcePath": "/Users/umarwaseem/Desktop/bchain-project-2/Cafeteria-System-Decentralized/truffle_smart_contracts/contracts/Project.sol",
  "compiler": {
    "name": "solc",
    "version": "0.8.13+commit.abaa5c0e.Emscripten.clang"
  },
  "schemaVersion": "3.4.16",
  "updatedAt": "2024-01-06T16:16:40.547Z",
  "networkType": "ethereum",
  "devdoc": {
    "kind": "dev",
    "methods": {},
    "version": 1
  },
  "userdoc": {
    "kind": "user",
    "methods": {},
    "version": 1
  }
}