{
  "contractName": "FastCoin",
  "abi": [
    {
      "inputs": [],
      "stateMutability": "nonpayable",
      "type": "constructor"
    },
    {
      "inputs": [
        {
          "internalType": "address",
          "name": "",
          "type": "address"
        },
        {
          "internalType": "address",
          "name": "",
          "type": "address"
        }
      ],
      "name": "allowances",
      "outputs": [
        {
          "internalType": "uint256",
          "name": "",
          "type": "uint256"
        }
      ],
      "stateMutability": "view",
      "type": "function"
    },
    {
      "inputs": [
        {
          "internalType": "address",
          "name": "",
          "type": "address"
        }
      ],
      "name": "balances",
      "outputs": [
        {
          "internalType": "uint256",
          "name": "",
          "type": "uint256"
        }
      ],
      "stateMutability": "view",
      "type": "function"
    },
    {
      "inputs": [],
      "name": "cafe",
      "outputs": [
        {
          "internalType": "address",
          "name": "",
          "type": "address"
        }
      ],
      "stateMutability": "view",
      "type": "function"
    },
    {
      "inputs": [],
      "name": "name",
      "outputs": [
        {
          "internalType": "string",
          "name": "",
          "type": "string"
        }
      ],
      "stateMutability": "view",
      "type": "function"
    },
    {
      "inputs": [],
      "name": "symbol",
      "outputs": [
        {
          "internalType": "string",
          "name": "",
          "type": "string"
        }
      ],
      "stateMutability": "view",
      "type": "function"
    },
    {
      "inputs": [],
      "name": "totalTokenSupply",
      "outputs": [
        {
          "internalType": "uint256",
          "name": "",
          "type": "uint256"
        }
      ],
      "stateMutability": "view",
      "type": "function"
    },
    {
      "inputs": [],
      "name": "totalSupply",
      "outputs": [
        {
          "internalType": "uint256",
          "name": "",
          "type": "uint256"
        }
      ],
      "stateMutability": "view",
      "type": "function"
    },
    {
      "inputs": [
        {
          "internalType": "address",
          "name": "account",
          "type": "address"
        }
      ],
      "name": "balanceOf",
      "outputs": [
        {
          "internalType": "uint256",
          "name": "",
          "type": "uint256"
        }
      ],
      "stateMutability": "view",
      "type": "function"
    },
    {
      "inputs": [],
      "name": "getTokens",
      "outputs": [],
      "stateMutability": "payable",
      "type": "function"
    },
    {
      "inputs": [
        {
          "internalType": "address",
          "name": "customer",
          "type": "address"
        },
        {
          "internalType": "uint256",
          "name": "amount",
          "type": "uint256"
        }
      ],
      "name": "transferToCafe",
      "outputs": [
        {
          "internalType": "bool",
          "name": "",
          "type": "bool"
        }
      ],
      "stateMutability": "nonpayable",
      "type": "function"
    },
    {
      "inputs": [
        {
          "internalType": "address",
          "name": "customer",
          "type": "address"
        },
        {
          "internalType": "uint256",
          "name": "amount",
          "type": "uint256"
        }
      ],
      "name": "transferFromCafe",
      "outputs": [
        {
          "internalType": "bool",
          "name": "",
          "type": "bool"
        }
      ],
      "stateMutability": "nonpayable",
      "type": "function"
    },
    {
      "inputs": [
        {
          "internalType": "address",
          "name": "recipient",
          "type": "address"
        },
        {
          "internalType": "uint256",
          "name": "amount",
          "type": "uint256"
        }
      ],
      "name": "transfer",
      "outputs": [
        {
          "internalType": "bool",
          "name": "",
          "type": "bool"
        }
      ],
      "stateMutability": "nonpayable",
      "type": "function"
    },
    {
      "inputs": [
        {
          "internalType": "address",
          "name": "spender",
          "type": "address"
        },
        {
          "internalType": "uint256",
          "name": "value",
          "type": "uint256"
        }
      ],
      "name": "approve",
      "outputs": [
        {
          "internalType": "bool",
          "name": "",
          "type": "bool"
        }
      ],
      "stateMutability": "nonpayable",
      "type": "function"
    },
    {
      "inputs": [
        {
          "internalType": "address",
          "name": "_owner",
          "type": "address"
        },
        {
          "internalType": "address",
          "name": "_spender",
          "type": "address"
        }
      ],
      "name": "allowance",
      "outputs": [
        {
          "internalType": "uint256",
          "name": "",
          "type": "uint256"
        }
      ],
      "stateMutability": "view",
      "type": "function"
    },
    {
      "inputs": [
        {
          "internalType": "address",
          "name": "sender",
          "type": "address"
        },
        {
          "internalType": "address",
          "name": "recipient",
          "type": "address"
        },
        {
          "internalType": "uint256",
          "name": "amount",
          "type": "uint256"
        }
      ],
      "name": "transferFrom",
      "outputs": [
        {
          "internalType": "bool",
          "name": "",
          "type": "bool"
        }
      ],
      "stateMutability": "nonpayable",
      "type": "function"
    }
  ],
  "bytecode": "0x60806040526040518060400160405280600881526020017f46617374436f696e00000000000000000000000000000000000000000000000081525060009080519060200190620000519291906200016b565b506040518060400160405280600281526020017f4643000000000000000000000000000000000000000000000000000000000000815250600190805190602001906200009f9291906200016b565b5069d3c21bcecceda1000000600355348015620000bb57600080fd5b5033600260006101000a81548173ffffffffffffffffffffffffffffffffffffffff021916908373ffffffffffffffffffffffffffffffffffffffff16021790555060035460046000600260009054906101000a900473ffffffffffffffffffffffffffffffffffffffff1673ffffffffffffffffffffffffffffffffffffffff1673ffffffffffffffffffffffffffffffffffffffff168152602001908152602001600020819055506200027f565b82805462000179906200024a565b90600052602060002090601f0160209004810192826200019d5760008555620001e9565b82601f10620001b857805160ff1916838001178555620001e9565b82800160010185558215620001e9579182015b82811115620001e8578251825591602001919060010190620001cb565b5b509050620001f89190620001fc565b5090565b5b8082111562000217576000816000905550600101620001fd565b5090565b7f4e487b7100000000000000000000000000000000000000000000000000000000600052602260045260246000fd5b600060028204905060018216806200026357607f821691505b6020821081036200027957620002786200021b565b5b50919050565b6116fb806200028f6000396000f3fe6080604052600436106100e85760003560e01c8063689284271161008a578063a9059cbb11610059578063a9059cbb14610344578063aa6ca80814610381578063aaeb98ef1461038b578063dd62ed3e146103b6576100e8565b8063689284271461026257806370a082311461029f57806395d89b41146102dc57806399a22dcc14610307576100e8565b80631ca8b6cb116100c65780631ca8b6cb1461018057806323b872dd146101ab57806327e235e3146101e857806355b6ed5c14610225576100e8565b806306fdde03146100ed578063095ea7b31461011857806318160ddd14610155575b600080fd5b3480156100f957600080fd5b506101026103f3565b60405161010f9190610ff9565b60405180910390f35b34801561012457600080fd5b5061013f600480360381019061013a91906110b4565b610481565b60405161014c919061110f565b60405180910390f35b34801561016157600080fd5b5061016a610590565b6040516101779190611139565b60405180910390f35b34801561018c57600080fd5b5061019561059a565b6040516101a29190611139565b60405180910390f35b3480156101b757600080fd5b506101d260048036038101906101cd9190611154565b6105a0565b6040516101df919061110f565b60405180910390f35b3480156101f457600080fd5b5061020f600480360381019061020a91906111a7565b61082d565b60405161021c9190611139565b60405180910390f35b34801561023157600080fd5b5061024c600480360381019061024791906111d4565b610845565b6040516102599190611139565b60405180910390f35b34801561026e57600080fd5b50610289600480360381019061028491906110b4565b61086a565b604051610296919061110f565b60405180910390f35b3480156102ab57600080fd5b506102c660048036038101906102c191906111a7565b6109c6565b6040516102d39190611139565b60405180910390f35b3480156102e857600080fd5b506102f1610a0f565b6040516102fe9190610ff9565b60405180910390f35b34801561031357600080fd5b5061032e600480360381019061032991906110b4565b610a9d565b60405161033b919061110f565b60405180910390f35b34801561035057600080fd5b5061036b600480360381019061036691906110b4565b610c1b565b604051610378919061110f565b60405180910390f35b610389610d55565b005b34801561039757600080fd5b506103a0610eb3565b6040516103ad9190611223565b60405180910390f35b3480156103c257600080fd5b506103dd60048036038101906103d891906111d4565b610ed9565b6040516103ea9190611139565b60405180910390f35b600080546104009061126d565b80601f016020809104026020016040519081016040528092919081815260200182805461042c9061126d565b80156104795780601f1061044e57610100808354040283529160200191610479565b820191906000526020600020905b81548152906001019060200180831161045c57829003601f168201915b505050505081565b600081600460003373ffffffffffffffffffffffffffffffffffffffff1673ffffffffffffffffffffffffffffffffffffffff168152602001908152602001600020541015610505576040517f08c379a00000000000000000000000000000000000000000000000000000000081526004016104fc90611310565b60405180910390fd5b81600560003373ffffffffffffffffffffffffffffffffffffffff1673ffffffffffffffffffffffffffffffffffffffff16815260200190815260200160002060008573ffffffffffffffffffffffffffffffffffffffff1673ffffffffffffffffffffffffffffffffffffffff168152602001908152602001600020819055506001905092915050565b6000600354905090565b60035481565b600081600460008673ffffffffffffffffffffffffffffffffffffffff1673ffffffffffffffffffffffffffffffffffffffff168152602001908152602001600020541015610624576040517f08c379a000000000000000000000000000000000000000000000000000000000815260040161061b906113a2565b60405180910390fd5b81600560008673ffffffffffffffffffffffffffffffffffffffff1673ffffffffffffffffffffffffffffffffffffffff16815260200190815260200160002060003373ffffffffffffffffffffffffffffffffffffffff1673ffffffffffffffffffffffffffffffffffffffff1681526020019081526020016000205410156106e3576040517f08c379a00000000000000000000000000000000000000000000000000000000081526004016106da90611434565b60405180910390fd5b81600460008673ffffffffffffffffffffffffffffffffffffffff1673ffffffffffffffffffffffffffffffffffffffff16815260200190815260200160002060008282546107329190611483565b9250508190555081600460008573ffffffffffffffffffffffffffffffffffffffff1673ffffffffffffffffffffffffffffffffffffffff168152602001908152602001600020600082825461078891906114b7565b9250508190555081600560008673ffffffffffffffffffffffffffffffffffffffff1673ffffffffffffffffffffffffffffffffffffffff16815260200190815260200160002060003373ffffffffffffffffffffffffffffffffffffffff1673ffffffffffffffffffffffffffffffffffffffff168152602001908152602001600020600082825461081b9190611483565b92505081905550600190509392505050565b60046020528060005260406000206000915090505481565b6005602052816000526040600020602052806000526040600020600091509150505481565b600081600460008573ffffffffffffffffffffffffffffffffffffffff1673ffffffffffffffffffffffffffffffffffffffff1681526020019081526020016000205410156108ee576040517f08c379a00000000000000000000000000000000000000000000000000000000081526004016108e590611559565b60405180910390fd5b81600460008573ffffffffffffffffffffffffffffffffffffffff1673ffffffffffffffffffffffffffffffffffffffff168152602001908152602001600020600082825461093d9190611483565b925050819055508160046000600260009054906101000a900473ffffffffffffffffffffffffffffffffffffffff1673ffffffffffffffffffffffffffffffffffffffff1673ffffffffffffffffffffffffffffffffffffffff16815260200190815260200160002060008282546109b591906114b7565b925050819055506001905092915050565b6000600460008373ffffffffffffffffffffffffffffffffffffffff1673ffffffffffffffffffffffffffffffffffffffff168152602001908152602001600020549050919050565b60018054610a1c9061126d565b80601f0160208091040260200160405190810160405280929190818152602001828054610a489061126d565b8015610a955780601f10610a6a57610100808354040283529160200191610a95565b820191906000526020600020905b815481529060010190602001808311610a7857829003601f168201915b505050505081565b60008160046000600260009054906101000a900473ffffffffffffffffffffffffffffffffffffffff1673ffffffffffffffffffffffffffffffffffffffff1673ffffffffffffffffffffffffffffffffffffffff168152602001908152602001600020541015610b43576040517f08c379a0000000000000000000000000000000000000000000000000000000008152600401610b3a90611559565b60405180910390fd5b8160046000600260009054906101000a900473ffffffffffffffffffffffffffffffffffffffff1673ffffffffffffffffffffffffffffffffffffffff1673ffffffffffffffffffffffffffffffffffffffff1681526020019081526020016000206000828254610bb49190611483565b9250508190555081600460008573ffffffffffffffffffffffffffffffffffffffff1673ffffffffffffffffffffffffffffffffffffffff1681526020019081526020016000206000828254610c0a91906114b7565b925050819055506001905092915050565b600081600460003373ffffffffffffffffffffffffffffffffffffffff1673ffffffffffffffffffffffffffffffffffffffff168152602001908152602001600020541015610c9f576040517f08c379a0000000000000000000000000000000000000000000000000000000008152600401610c96906115eb565b60405180910390fd5b81600460003373ffffffffffffffffffffffffffffffffffffffff1673ffffffffffffffffffffffffffffffffffffffff1681526020019081526020016000206000828254610cee9190611483565b9250508190555081600460008573ffffffffffffffffffffffffffffffffffffffff1673ffffffffffffffffffffffffffffffffffffffff1681526020019081526020016000206000828254610d4491906114b7565b925050819055506001905092915050565b600260009054906101000a900473ffffffffffffffffffffffffffffffffffffffff1673ffffffffffffffffffffffffffffffffffffffff166108fc349081150290604051600060405180830381858888f19350505050158015610dbd573d6000803e3d6000fd5b5060006064670de0b6b3a764000034610dd6919061163a565b610de0919061166b565b905080600460003373ffffffffffffffffffffffffffffffffffffffff1673ffffffffffffffffffffffffffffffffffffffff1681526020019081526020016000206000828254610e3191906114b7565b925050819055508060046000600260009054906101000a900473ffffffffffffffffffffffffffffffffffffffff1673ffffffffffffffffffffffffffffffffffffffff1673ffffffffffffffffffffffffffffffffffffffff1681526020019081526020016000206000828254610ea99190611483565b9250508190555050565b600260009054906101000a900473ffffffffffffffffffffffffffffffffffffffff1681565b6000600560008473ffffffffffffffffffffffffffffffffffffffff1673ffffffffffffffffffffffffffffffffffffffff16815260200190815260200160002060008373ffffffffffffffffffffffffffffffffffffffff1673ffffffffffffffffffffffffffffffffffffffff16815260200190815260200160002054905092915050565b600081519050919050565b600082825260208201905092915050565b60005b83811015610f9a578082015181840152602081019050610f7f565b83811115610fa9576000848401525b50505050565b6000601f19601f8301169050919050565b6000610fcb82610f60565b610fd58185610f6b565b9350610fe5818560208601610f7c565b610fee81610faf565b840191505092915050565b600060208201905081810360008301526110138184610fc0565b905092915050565b600080fd5b600073ffffffffffffffffffffffffffffffffffffffff82169050919050565b600061104b82611020565b9050919050565b61105b81611040565b811461106657600080fd5b50565b60008135905061107881611052565b92915050565b6000819050919050565b6110918161107e565b811461109c57600080fd5b50565b6000813590506110ae81611088565b92915050565b600080604083850312156110cb576110ca61101b565b5b60006110d985828601611069565b92505060206110ea8582860161109f565b9150509250929050565b60008115159050919050565b611109816110f4565b82525050565b60006020820190506111246000830184611100565b92915050565b6111338161107e565b82525050565b600060208201905061114e600083018461112a565b92915050565b60008060006060848603121561116d5761116c61101b565b5b600061117b86828701611069565b935050602061118c86828701611069565b925050604061119d8682870161109f565b9150509250925092565b6000602082840312156111bd576111bc61101b565b5b60006111cb84828501611069565b91505092915050565b600080604083850312156111eb576111ea61101b565b5b60006111f985828601611069565b925050602061120a85828601611069565b9150509250929050565b61121d81611040565b82525050565b60006020820190506112386000830184611214565b92915050565b7f4e487b7100000000000000000000000000000000000000000000000000000000600052602260045260246000fd5b6000600282049050600182168061128557607f821691505b6020821081036112985761129761123e565b5b50919050565b7f596f7520646f6e74206861766520656e6f7567682062616c616e636520746f2060008201527f7365742074686520616c6c6f77616e636520616d6f756e740000000000000000602082015250565b60006112fa603883610f6b565b91506113058261129e565b604082019050919050565b60006020820190508181036000830152611329816112ed565b9050919050565b7f5468652073656e6465722062616c616e6365206973206c657373207468616e2060008201527f74686520616d6f756e7400000000000000000000000000000000000000000000602082015250565b600061138c602a83610f6b565b915061139782611330565b604082019050919050565b600060208201905081810360008301526113bb8161137f565b9050919050565b7f54686520616c6c6f77616e636520666f7220636f6e747261637420696e766f6b60008201527f6572206973206c657373207468616e2074686520616d6f756e74000000000000602082015250565b600061141e603a83610f6b565b9150611429826113c2565b604082019050919050565b6000602082019050818103600083015261144d81611411565b9050919050565b7f4e487b7100000000000000000000000000000000000000000000000000000000600052601160045260246000fd5b600061148e8261107e565b91506114998361107e565b9250828210156114ac576114ab611454565b5b828203905092915050565b60006114c28261107e565b91506114cd8361107e565b9250827fffffffffffffffffffffffffffffffffffffffffffffffffffffffffffffffff0382111561150257611501611454565b5b828201905092915050565b7f496e73756666696369656e742046756e64730000000000000000000000000000600082015250565b6000611543601283610f6b565b915061154e8261150d565b602082019050919050565b6000602082019050818103600083015261157281611536565b9050919050565b7f596f7520646f6e74206861766520656e6f7567682062616c616e636520746f2060008201527f7472616e736665722074686520616d6f756e7400000000000000000000000000602082015250565b60006115d5603383610f6b565b91506115e082611579565b604082019050919050565b60006020820190508181036000830152611604816115c8565b9050919050565b7f4e487b7100000000000000000000000000000000000000000000000000000000600052601260045260246000fd5b60006116458261107e565b91506116508361107e565b9250826116605761165f61160b565b5b828204905092915050565b60006116768261107e565b91506116818361107e565b9250817fffffffffffffffffffffffffffffffffffffffffffffffffffffffffffffffff04831182151516156116ba576116b9611454565b5b82820290509291505056fea26469706673582212206d08ddda6d1767857b8391280d90cfc6fe632ebc5004ea744f71eac959da178b64736f6c634300080d0033",
  "immutableReferences": {},
  "source": "// SPDX-License-Identifier: MIT\r\n\r\npragma solidity >=0.4.22 <0.9.0;\r\n\r\ninterface ERC20 {\r\n    // total supply of the tokens\r\n    function totalSupply() external view returns (uint256);\r\n\r\n    // balance of a particular account\r\n    function balanceOf(address account) external view returns (uint256);\r\n\r\n    function transfer(\r\n        address recipient,\r\n        uint256 amount\r\n    ) external returns (bool);\r\n\r\n    function allowance(\r\n        address _owner,\r\n        address _spender\r\n    ) external view returns (uint256);\r\n\r\n    function approve(address spender, uint256 value) external returns (bool);\r\n\r\n    function transferFrom(\r\n        address sender,\r\n        address recipient,\r\n        uint256 amount\r\n    ) external returns (bool);\r\n}\r\n\r\ncontract FastCoin is ERC20 {\r\n    string public name = \"FastCoin\";\r\n    string public symbol = \"FC\";\r\n\r\n    address public cafe;\r\n    uint256 public totalTokenSupply = 1000000 * (10 ** 18);\r\n\r\n    // which address has how many tokens\r\n    mapping(address => uint256) public balances;\r\n\r\n    // which address has allowed which address to spend how many tokens\r\n    mapping(address => mapping(address => uint256)) public allowances;\r\n\r\n    constructor() {\r\n        cafe = msg.sender;\r\n        // give half of the tokens to the owner\r\n        balances[cafe] = totalTokenSupply;\r\n    }\r\n\r\n    // total supply of the tokens\r\n    function totalSupply() external view override returns (uint256) {\r\n        return totalTokenSupply;\r\n    }\r\n\r\n    // balance of a particular account\r\n    function balanceOf(\r\n        address account\r\n    ) external view override returns (uint256) {\r\n        return balances[account];\r\n    }\r\n\r\n    function getTokens() external payable {\r\n        //1 eth = 100 FC\r\n        payable(cafe).transfer(msg.value);\r\n        uint256 tokensToSend = (msg.value / 1 ether) * 100;\r\n        balances[msg.sender] += tokensToSend;\r\n        balances[cafe] -= tokensToSend;\r\n    }\r\n\r\n    function transferToCafe(\r\n        address customer,\r\n        uint256 amount\r\n    ) external returns (bool) {\r\n        require(balances[customer] >= amount, \"Insufficient Funds\");\r\n        balances[customer] -= amount;\r\n        balances[cafe] += amount;\r\n        return true;\r\n    }\r\n\r\n    function transferFromCafe(\r\n        address customer,\r\n        uint256 amount\r\n    ) external returns (bool) {\r\n        require(balances[cafe] >= amount, \"Insufficient Funds\");\r\n        balances[cafe] -= amount;\r\n        balances[customer] += amount;\r\n        return true;\r\n    }\r\n\r\n    // transfer tokens from the contract invoker to the recipient\r\n    function transfer(\r\n        address recipient,\r\n        uint256 amount\r\n    ) external returns (bool) {\r\n        require(\r\n            balances[msg.sender] >= amount,\r\n            \"You dont have enough balance to transfer the amount\"\r\n        );\r\n        balances[msg.sender] -= amount;\r\n        balances[recipient] += amount;\r\n        return true;\r\n    }\r\n\r\n    function approve(address spender, uint256 value) external returns (bool) {\r\n        require(\r\n            balances[msg.sender] >= value,\r\n            \"You dont have enough balance to set the allowance amount\"\r\n        );\r\n        allowances[msg.sender][spender] = value;\r\n        return true;\r\n    }\r\n\r\n    // check the allowance and its availablity\r\n    function allowance(\r\n        address _owner,\r\n        address _spender\r\n    ) external view returns (uint256) {\r\n        return allowances[_owner][_spender];\r\n    }\r\n\r\n    function transferFrom(\r\n        address sender,\r\n        address recipient,\r\n        uint256 amount\r\n    ) external returns (bool) {\r\n        // sender should have enough balance to spend\r\n        require(\r\n            balances[sender] >= amount,\r\n            \"The sender balance is less than the amount\"\r\n        );\r\n        require(\r\n            allowances[sender][msg.sender] >= amount,\r\n            \"The allowance for contract invoker is less than the amount\"\r\n        );\r\n\r\n        // cut balance from sender and add to reciepent\r\n        balances[sender] -= amount;\r\n        balances[recipient] += amount;\r\n\r\n        allowances[sender][msg.sender] -= amount;\r\n\r\n        return true;\r\n    }\r\n}\r\n\r\ncontract MenuManagement {\r\n    // state variables (stored directly on the blockchain)\r\n    address public owner;\r\n\r\n    // called only once when the smart contract is deployed to the blockchain\r\n    constructor() {\r\n        owner = msg.sender;\r\n    }\r\n\r\n    struct MenuItem {\r\n        string itemName;\r\n        uint256 quantity;\r\n        uint256 price;\r\n    }\r\n\r\n    // array to store menu items\r\n    MenuItem[] public menuItems;\r\n\r\n    function getItemsCount() public view returns (uint256) {\r\n        return menuItems.length;\r\n    }\r\n\r\n    modifier onlyOwner() {\r\n        require(msg.sender == owner);\r\n        _;\r\n    }\r\n\r\n    modifier indexCheck(uint256 _index) {\r\n        require(_index < menuItems.length, \"Invalid index\");\r\n        _;\r\n    }\r\n\r\n    function addItem(\r\n        string memory _itemName,\r\n        uint256 _itemQuantity,\r\n        uint256 _itemPrice\r\n    ) public onlyOwner {\r\n        menuItems.push(MenuItem(_itemName, _itemQuantity, _itemPrice));\r\n    }\r\n\r\n    function updatePrice(\r\n        uint256 _index,\r\n        uint256 _itemPrice\r\n    ) public onlyOwner indexCheck(_index) {\r\n        // multiply by 1 ether to convert to wei\r\n        menuItems[_index].price = _itemPrice;\r\n    }\r\n\r\n    function getPrice(\r\n        uint256 _index\r\n    ) public view indexCheck(_index) returns (uint256) {\r\n        // divide by 1 ether to convert to ether\r\n        return menuItems[_index].price;\r\n    }\r\n\r\n    function updateQuantity(\r\n        uint256 _index,\r\n        uint256 _itemQuantity\r\n    ) public indexCheck(_index) {\r\n        menuItems[_index].quantity = _itemQuantity;\r\n    }\r\n\r\n    function getItemQuantity(\r\n        uint256 _index\r\n    ) public view indexCheck(_index) returns (uint256) {\r\n        return menuItems[_index].quantity;\r\n    }\r\n\r\n    function checkAvailability(\r\n        uint256 _index\r\n    ) public view indexCheck(_index) returns (bool) {\r\n        // available if quantity is more than 0\r\n        return (menuItems[_index].quantity > 0);\r\n    }\r\n\r\n    function getAllItemNames() public view returns (string[] memory) {\r\n        string[] memory itemNames = new string[](menuItems.length);\r\n        for (uint256 i = 0; i < menuItems.length; i++) {\r\n            itemNames[i] = menuItems[i].itemName;\r\n        }\r\n        return itemNames;\r\n    }\r\n\r\n    function getAllItemPrices() public view returns (uint256[] memory) {\r\n        uint256[] memory itemPrices = new uint256[](menuItems.length);\r\n        for (uint256 i = 0; i < menuItems.length; i++) {\r\n            itemPrices[i] = menuItems[i].price;\r\n        }\r\n        return itemPrices;\r\n    }\r\n\r\n    function getAllItemQuantities() public view returns (uint256[] memory) {\r\n        uint256[] memory itemQuantities = new uint256[](menuItems.length);\r\n        for (uint256 i = 0; i < menuItems.length; i++) {\r\n            itemQuantities[i] = menuItems[i].quantity;\r\n        }\r\n        return itemQuantities;\r\n    }\r\n}\r\n\r\ncontract promotions {\r\n    uint256 public discount;\r\n    address public owner;\r\n\r\n    constructor() {\r\n        owner = msg.sender;\r\n    }\r\n\r\n    modifier onlyOwner() {\r\n        require(msg.sender == owner);\r\n        _;\r\n    }\r\n\r\n    function setDiscount(uint256 disc) public onlyOwner {\r\n        discount = disc;\r\n    }\r\n\r\n    function applyDiscount(uint256 amount) public view returns (uint256) {\r\n        return (amount * (100 - discount)) / 100;\r\n    }\r\n}\r\n\r\ncontract RewardsLoyalty {\r\n    mapping(address => uint256) public loyaltyTokens;\r\n    FastCoin public fc;\r\n    address public owner;\r\n\r\n    constructor(FastCoin _fc) {\r\n        owner = msg.sender;\r\n        fc = _fc;\r\n    }\r\n\r\n    function incTokens(address _customer) public {\r\n        //10 loyalty points given for each purchase\r\n        loyaltyTokens[_customer] += 10;\r\n    }\r\n\r\n    function redeemPrize() public {\r\n        uint256 prize = loyaltyTokens[msg.sender] / 10;\r\n        loyaltyTokens[msg.sender] = 0;\r\n        fc.transferFromCafe(msg.sender, prize);\r\n    }\r\n}\r\n\r\ncontract OrderContract {\r\n    address public owner;\r\n    MenuManagement public mm;\r\n    promotions public pr;\r\n    RewardsLoyalty public rl;\r\n    FastCoin public fc;\r\n\r\n    constructor(\r\n        MenuManagement _mm,\r\n        promotions _pr,\r\n        RewardsLoyalty _rl,\r\n        FastCoin _fc\r\n    ) {\r\n        owner = msg.sender;\r\n        mm = _mm;\r\n        pr = _pr;\r\n        rl = _rl;\r\n        fc = _fc;\r\n    }\r\n\r\n    function calculateOrderAmount(\r\n        uint256[] memory _itemIndexes,\r\n        uint256[] memory _quantities\r\n    ) public view returns (uint256) {\r\n        require(\r\n            _itemIndexes.length == _quantities.length,\r\n            \"Error: Item and quantity count mismatch\"\r\n        );\r\n\r\n        // check for an invalid item index and availability\r\n        for (uint256 i = 0; i < _itemIndexes.length; i++) {\r\n            require(_itemIndexes[i] < mm.getItemsCount(), \"Invalid item index\");\r\n            require(mm.checkAvailability(_itemIndexes[i]), \"Item out of stock\");\r\n        }\r\n\r\n        uint256 totalAmount = 0;\r\n\r\n        for (uint256 i = 0; i < _itemIndexes.length; i++) {\r\n            uint256 itemPrice = mm.getPrice(_itemIndexes[i]);\r\n            totalAmount += itemPrice * _quantities[i];\r\n        }\r\n        //returning discounted value\r\n        return pr.applyDiscount(totalAmount);\r\n    }\r\n\r\n    function placeOrder(\r\n        uint256[] memory _itemIndexes,\r\n        uint256[] memory _quantities,\r\n        uint payment\r\n    ) public {\r\n        uint256 totalAmount = calculateOrderAmount(_itemIndexes, _quantities);\r\n        require(payment >= totalAmount, \"You didnt pay enough\");\r\n\r\n        for (uint256 i = 0; i < _itemIndexes.length; i++) {\r\n            mm.updateQuantity(\r\n                _itemIndexes[i],\r\n                mm.getItemQuantity(_itemIndexes[i]) - _quantities[i]\r\n            );\r\n        }\r\n\r\n        rl.incTokens(msg.sender);\r\n        fc.transferToCafe(msg.sender, payment);\r\n    }\r\n}\r\n",
  "sourcePath": "/Users/umarwaseem/Desktop/bchain-project-2/Cafeteria-System-Decentralized/truffle_smart_contracts/contracts/Project.sol",
  "compiler": {
    "name": "solc",
    "version": "0.8.13+commit.abaa5c0e.Emscripten.clang"
  },
  "schemaVersion": "3.4.16",
  "updatedAt": "2024-01-06T16:15:19.775Z",
  "devdoc": {
    "kind": "dev",
    "methods": {},
    "version": 1
  },
  "userdoc": {
    "kind": "user",
    "methods": {},
    "version": 1
  }
}