{
  "contractName": "MenuManagement",
  "abi": [
    {
      "inputs": [],
      "stateMutability": "nonpayable",
      "type": "constructor"
    },
    {
      "inputs": [
        {
          "internalType": "uint256",
          "name": "",
          "type": "uint256"
        }
      ],
      "name": "menuItems",
      "outputs": [
        {
          "internalType": "string",
          "name": "itemName",
          "type": "string"
        },
        {
          "internalType": "uint256",
          "name": "quantity",
          "type": "uint256"
        },
        {
          "internalType": "uint256",
          "name": "price",
          "type": "uint256"
        }
      ],
      "stateMutability": "view",
      "type": "function",
      "constant": true
    },
    {
      "inputs": [],
      "name": "owner",
      "outputs": [
        {
          "internalType": "address",
          "name": "",
          "type": "address"
        }
      ],
      "stateMutability": "view",
      "type": "function",
      "constant": true
    },
    {
      "inputs": [],
      "name": "getItemsCount",
      "outputs": [
        {
          "internalType": "uint256",
          "name": "",
          "type": "uint256"
        }
      ],
      "stateMutability": "view",
      "type": "function",
      "constant": true
    },
    {
      "inputs": [
        {
          "internalType": "string",
          "name": "_itemName",
          "type": "string"
        },
        {
          "internalType": "uint256",
          "name": "_itemQuantity",
          "type": "uint256"
        },
        {
          "internalType": "uint256",
          "name": "_itemPrice",
          "type": "uint256"
        }
      ],
      "name": "addItem",
      "outputs": [],
      "stateMutability": "nonpayable",
      "type": "function"
    },
    {
      "inputs": [
        {
          "internalType": "uint256",
          "name": "_index",
          "type": "uint256"
        },
        {
          "internalType": "uint256",
          "name": "_itemPrice",
          "type": "uint256"
        }
      ],
      "name": "updatePrice",
      "outputs": [],
      "stateMutability": "nonpayable",
      "type": "function"
    },
    {
      "inputs": [
        {
          "internalType": "uint256",
          "name": "_index",
          "type": "uint256"
        }
      ],
      "name": "getPrice",
      "outputs": [
        {
          "internalType": "uint256",
          "name": "",
          "type": "uint256"
        }
      ],
      "stateMutability": "view",
      "type": "function",
      "constant": true
    },
    {
      "inputs": [
        {
          "internalType": "uint256",
          "name": "_index",
          "type": "uint256"
        },
        {
          "internalType": "uint256",
          "name": "_itemQuantity",
          "type": "uint256"
        }
      ],
      "name": "updateQuantity",
      "outputs": [],
      "stateMutability": "nonpayable",
      "type": "function"
    },
    {
      "inputs": [
        {
          "internalType": "uint256",
          "name": "_index",
          "type": "uint256"
        }
      ],
      "name": "getItemQuantity",
      "outputs": [
        {
          "internalType": "uint256",
          "name": "",
          "type": "uint256"
        }
      ],
      "stateMutability": "view",
      "type": "function",
      "constant": true
    },
    {
      "inputs": [
        {
          "internalType": "uint256",
          "name": "_index",
          "type": "uint256"
        }
      ],
      "name": "checkAvailability",
      "outputs": [
        {
          "internalType": "bool",
          "name": "",
          "type": "bool"
        }
      ],
      "stateMutability": "view",
      "type": "function",
      "constant": true
    }
  ],
  "bytecode": "0x608060405234801561001057600080fd5b50336000806101000a81548173ffffffffffffffffffffffffffffffffffffffff021916908373ffffffffffffffffffffffffffffffffffffffff160217905550610c26806100606000396000f3fe608060405234801561001057600080fd5b50600436106100935760003560e01c806379cd49211161006657806379cd49211461014857806382367b2d146101645780638da5cb5b14610180578063d5e6c3331461019e578063e7572230146101ba57610093565b80632a5a8c6314610098578063512dd020146100ca5780636f5528c0146100e8578063753999ef14610118575b600080fd5b6100b260048036038101906100ad9190610751565b6101ea565b6040516100c193929190610826565b60405180910390f35b6100d26102ac565b6040516100df9190610864565b60405180910390f35b61010260048036038101906100fd9190610751565b6102b9565b60405161010f9190610864565b60405180910390f35b610132600480360381019061012d9190610751565b610331565b60405161013f919061089a565b60405180910390f35b610162600480360381019061015d91906108b5565b6103ac565b005b61017e600480360381019061017991906108b5565b610423565b005b6101886104f2565b6040516101959190610936565b60405180910390f35b6101b860048036038101906101b39190610a86565b610516565b005b6101d460048036038101906101cf9190610751565b6105ec565b6040516101e19190610864565b60405180910390f35b600181815481106101fa57600080fd5b906000526020600020906003020160009150905080600001805461021d90610b24565b80601f016020809104026020016040519081016040528092919081815260200182805461024990610b24565b80156102965780601f1061026b57610100808354040283529160200191610296565b820191906000526020600020905b81548152906001019060200180831161027957829003601f168201915b5050505050908060010154908060020154905083565b6000600180549050905090565b6000816001805490508110610303576040517f08c379a00000000000000000000000000000000000000000000000000000000081526004016102fa90610ba1565b60405180910390fd5b6001838154811061031757610316610bc1565b5b906000526020600020906003020160010154915050919050565b600081600180549050811061037b576040517f08c379a000000000000000000000000000000000000000000000000000000000815260040161037290610ba1565b60405180910390fd5b60006001848154811061039157610390610bc1565b5b90600052602060002090600302016001015411915050919050565b8160018054905081106103f4576040517f08c379a00000000000000000000000000000000000000000000000000000000081526004016103eb90610ba1565b60405180910390fd5b816001848154811061040957610408610bc1565b5b906000526020600020906003020160010181905550505050565b60008054906101000a900473ffffffffffffffffffffffffffffffffffffffff1673ffffffffffffffffffffffffffffffffffffffff163373ffffffffffffffffffffffffffffffffffffffff161461047b57600080fd5b8160018054905081106104c3576040517f08c379a00000000000000000000000000000000000000000000000000000000081526004016104ba90610ba1565b60405180910390fd5b81600184815481106104d8576104d7610bc1565b5b906000526020600020906003020160020181905550505050565b60008054906101000a900473ffffffffffffffffffffffffffffffffffffffff1681565b60008054906101000a900473ffffffffffffffffffffffffffffffffffffffff1673ffffffffffffffffffffffffffffffffffffffff163373ffffffffffffffffffffffffffffffffffffffff161461056e57600080fd5b6001604051806060016040528085815260200184815260200183815250908060018154018082558091505060019003906000526020600020906003020160009091909190915060008201518160000190805190602001906105d0929190610664565b5060208201518160010155604082015181600201555050505050565b6000816001805490508110610636576040517f08c379a000000000000000000000000000000000000000000000000000000000815260040161062d90610ba1565b60405180910390fd5b6001838154811061064a57610649610bc1565b5b906000526020600020906003020160020154915050919050565b82805461067090610b24565b90600052602060002090601f01602090048101928261069257600085556106d9565b82601f106106ab57805160ff19168380011785556106d9565b828001600101855582156106d9579182015b828111156106d85782518255916020019190600101906106bd565b5b5090506106e691906106ea565b5090565b5b808211156107035760008160009055506001016106eb565b5090565b6000604051905090565b600080fd5b600080fd5b6000819050919050565b61072e8161071b565b811461073957600080fd5b50565b60008135905061074b81610725565b92915050565b60006020828403121561076757610766610711565b5b60006107758482850161073c565b91505092915050565b600081519050919050565b600082825260208201905092915050565b60005b838110156107b857808201518184015260208101905061079d565b838111156107c7576000848401525b50505050565b6000601f19601f8301169050919050565b60006107e98261077e565b6107f38185610789565b935061080381856020860161079a565b61080c816107cd565b840191505092915050565b6108208161071b565b82525050565b6000606082019050818103600083015261084081866107de565b905061084f6020830185610817565b61085c6040830184610817565b949350505050565b60006020820190506108796000830184610817565b92915050565b60008115159050919050565b6108948161087f565b82525050565b60006020820190506108af600083018461088b565b92915050565b600080604083850312156108cc576108cb610711565b5b60006108da8582860161073c565b92505060206108eb8582860161073c565b9150509250929050565b600073ffffffffffffffffffffffffffffffffffffffff82169050919050565b6000610920826108f5565b9050919050565b61093081610915565b82525050565b600060208201905061094b6000830184610927565b92915050565b600080fd5b600080fd5b7f4e487b7100000000000000000000000000000000000000000000000000000000600052604160045260246000fd5b610993826107cd565b810181811067ffffffffffffffff821117156109b2576109b161095b565b5b80604052505050565b60006109c5610707565b90506109d1828261098a565b919050565b600067ffffffffffffffff8211156109f1576109f061095b565b5b6109fa826107cd565b9050602081019050919050565b82818337600083830152505050565b6000610a29610a24846109d6565b6109bb565b905082815260208101848484011115610a4557610a44610956565b5b610a50848285610a07565b509392505050565b600082601f830112610a6d57610a6c610951565b5b8135610a7d848260208601610a16565b91505092915050565b600080600060608486031215610a9f57610a9e610711565b5b600084013567ffffffffffffffff811115610abd57610abc610716565b5b610ac986828701610a58565b9350506020610ada8682870161073c565b9250506040610aeb8682870161073c565b9150509250925092565b7f4e487b7100000000000000000000000000000000000000000000000000000000600052602260045260246000fd5b60006002820490506001821680610b3c57607f821691505b602082108103610b4f57610b4e610af5565b5b50919050565b7f496e76616c696420696e64657800000000000000000000000000000000000000600082015250565b6000610b8b600d83610789565b9150610b9682610b55565b602082019050919050565b60006020820190508181036000830152610bba81610b7e565b9050919050565b7f4e487b7100000000000000000000000000000000000000000000000000000000600052603260045260246000fdfea264697066735822122051a9d8ecafc6fd8efcfa4f6068c864a4930586b4da7549036d303e3f2cd478ac64736f6c634300080d0033",
  "immutableReferences": {},
  "source": "// SPDX-License-Identifier: MIT\r\n\r\npragma solidity >=0.4.22 <0.9.0;\r\n\r\ninterface ERC20 {\r\n    // total supply of the tokens\r\n    function totalSupply() external view returns (uint256);\r\n    // balance of a particular account\r\n    function balanceOf(address account) external view returns (uint256);\r\n\r\n    function transfer(address recipient, uint256 amount) external returns (bool);\r\n    function allowance(address _owner, address _spender) external view returns (uint256);\r\n    function approve(address spender, uint256 value) external returns (bool);\r\n    function transferFrom(address sender, address recipient, uint256 amount) external returns (bool);\r\n    \r\n}\r\n\r\ncontract FastCoin is ERC20 {\r\n    string public name = \"FastCoin\";\r\n    string public symbol = \"FC\";\r\n    \r\n    address public cafe;\r\n    uint256 public totalTokenSupply = 1000000 * (10**18);\r\n\r\n    // which address has how many tokens\r\n    mapping(address => uint256) public balances;\r\n\r\n    // which address has allowed which address to spend how many tokens\r\n    mapping(address => mapping(address => uint256)) public allowances;\r\n\r\n    constructor() {\r\n        cafe = msg.sender;\r\n        // give half of the tokens to the owner\r\n        balances[cafe] = totalTokenSupply;\r\n    }\r\n\r\n    // total supply of the tokens\r\n    function totalSupply() external view override returns (uint256) {\r\n        return totalTokenSupply;\r\n    }\r\n\r\n    // balance of a particular account\r\n    function balanceOf(address account) external view override returns (uint256) {\r\n        return balances[account];\r\n    }\r\n\r\n    function getTokens() external payable{\r\n        //1 eth = 100 FC\r\n        payable(cafe).transfer(msg.value);\r\n        uint256 tokensToSend = (msg.value/1 ether)*100;\r\n        balances[msg.sender] += tokensToSend;\r\n        balances[cafe] -= tokensToSend;\r\n    }\r\n\r\n    function transferToCafe(address customer, uint256 amount) external returns (bool){\r\n        require(balances[customer]>=amount, \"Insufficient Funds\");\r\n        balances[customer] -= amount;\r\n        balances[cafe] += amount;\r\n        return true;\r\n    }\r\n\r\n    function transferFromCafe(address customer, uint256 amount) external returns (bool){\r\n        require(balances[cafe]>=amount, \"Insufficient Funds\");\r\n        balances[cafe] -= amount;\r\n        balances[customer] += amount;\r\n        return true;\r\n    }\r\n\r\n    // transfer tokens from the contract invoker to the recipient\r\n    function transfer(address recipient,uint256 amount) external returns (bool){\r\n        require(balances[msg.sender] >= amount, \"You dont have enough balance to transfer the amount\");\r\n        balances[msg.sender] -= amount;\r\n        balances[recipient] += amount;\r\n        return true;\r\n    }\r\n\r\n    function approve(address spender,uint256 value) external returns (bool) {\r\n        require(balances[msg.sender] >= value, \"You dont have enough balance to set the allowance amount\");\r\n        allowances[msg.sender][spender] = value;\r\n        return true;    \r\n    }\r\n\r\n    // check the allowance and its availablity\r\n    function allowance(address _owner, address _spender) external view returns (uint256){\r\n        return allowances[_owner][_spender];\r\n    }\r\n\r\n    function transferFrom(address sender,address recipient,uint256 amount) external returns (bool) {\r\n        // sender should have enough balance to spend\r\n        require(balances[sender] >= amount, \"The sender balance is less than the amount\");\r\n        require(allowances[sender][msg.sender] >= amount, \"The allowance for contract invoker is less than the amount\");\r\n\r\n        // cut balance from sender and add to reciepent\r\n        balances[sender] -= amount;\r\n        balances[recipient] += amount;\r\n\r\n        allowances[sender][msg.sender] -= amount;\r\n\r\n        return true;\r\n    }\r\n\r\n}\r\n\r\ncontract MenuManagement{\r\n    // state variables (stored directly on the blockchain)\r\n    address public owner;\r\n\r\n    // called only once when the smart contract is deployed to the blockchain\r\n    constructor() {\r\n        owner = msg.sender;\r\n    }\r\n\r\n    struct MenuItem {\r\n        string itemName;\r\n        uint256 quantity;\r\n        uint256 price;\r\n    }\r\n\r\n    // array to store menu items\r\n    MenuItem[] public menuItems;\r\n\r\n    function getItemsCount() public view returns (uint256) {\r\n        return menuItems.length;\r\n    }\r\n\r\n    modifier onlyOwner{\r\n        require(msg.sender == owner);\r\n        _;\r\n    }\r\n\r\n    modifier indexCheck(uint256 _index){\r\n        require(_index < menuItems.length, \"Invalid index\");\r\n        _;\r\n\r\n    }\r\n\r\n    function addItem(string memory _itemName, uint256 _itemQuantity, uint256 _itemPrice) public onlyOwner{\r\n        menuItems.push(MenuItem(_itemName, _itemQuantity, _itemPrice));\r\n    }\r\n\r\n    function updatePrice(uint256 _index, uint256 _itemPrice) public onlyOwner indexCheck(_index){\r\n        // multiply by 1 ether to convert to wei\r\n        menuItems[_index].price = _itemPrice;\r\n    }\r\n\r\n    function getPrice(uint256 _index) public view indexCheck(_index) returns (uint256){\r\n        // divide by 1 ether to convert to ether\r\n        return menuItems[_index].price;\r\n    }\r\n\r\n    function updateQuantity(uint256 _index, uint256 _itemQuantity) public indexCheck(_index){\r\n        menuItems[_index].quantity = _itemQuantity;\r\n    }\r\n\r\n    function getItemQuantity(uint256 _index) public view indexCheck(_index) returns (uint256) {\r\n        return menuItems[_index].quantity;\r\n    }\r\n\r\n    function checkAvailability(uint256 _index) public view indexCheck(_index) returns (bool) {\r\n        // available if quantity is more than 0\r\n        return (menuItems[_index].quantity > 0);\r\n    }\r\n\r\n\r\n}\r\n\r\ncontract promotions{\r\n\r\n    uint256 public discount;\r\n    address public owner;\r\n\r\n\r\n    constructor() {\r\n        owner = msg.sender;\r\n    }\r\n\r\n    modifier onlyOwner{\r\n        require(msg.sender == owner);\r\n        _;\r\n    }\r\n\r\n    function setDiscount(uint256 disc) public onlyOwner{\r\n        discount = disc;\r\n    } \r\n\r\n    function applyDiscount(uint256 amount) public view returns (uint256){\r\n        return (amount * (100 - discount)) / 100;\r\n    }\r\n    \r\n}\r\n\r\ncontract RewardsLoyalty{\r\n    mapping(address => uint256) public loyaltyTokens;\r\n    FastCoin public fc;\r\n    address public owner;\r\n    \r\n    constructor(FastCoin _fc){\r\n        owner = msg.sender;\r\n        fc = _fc;\r\n    }\r\n\r\n    function incTokens(address _customer) public {\r\n        //10 loyalty points given for each purchase\r\n        loyaltyTokens[_customer]+=10;\r\n    }\r\n\r\n    function redeemPrize() public{\r\n        uint256 prize = loyaltyTokens[msg.sender]/10;\r\n        loyaltyTokens[msg.sender] = 0;\r\n        fc.transferFromCafe(msg.sender, prize);\r\n    }\r\n\r\n}\r\n\r\ncontract OrderContract{\r\n    address public owner; \r\n    MenuManagement public mm;\r\n    promotions public pr;\r\n    RewardsLoyalty public rl;\r\n    FastCoin public fc;\r\n\r\n    constructor(MenuManagement _mm, promotions _pr, RewardsLoyalty _rl, FastCoin _fc) {\r\n        owner = msg.sender;\r\n        mm = _mm;\r\n        pr = _pr;\r\n        rl = _rl;\r\n        fc = _fc;\r\n    }\r\n\r\n    function calculateOrderAmount(uint256[] memory _itemIndexes, uint256[] memory _quantities) public view returns (uint256){\r\n        require(_itemIndexes.length == _quantities.length, \"Error: Item and quantity count mismatch\");\r\n        \r\n        // check for an invalid item index and availability\r\n        for (uint256 i = 0; i < _itemIndexes.length; i++) {\r\n            require(_itemIndexes[i] < mm.getItemsCount(), \"Invalid item index\");\r\n            require(mm.checkAvailability(_itemIndexes[i]), \"Item out of stock\");\r\n        }\r\n\r\n        uint256 totalAmount = 0;\r\n\r\n        for (uint256 i = 0; i < _itemIndexes.length; i++) {\r\n            uint256 itemPrice = mm.getPrice(_itemIndexes[i]);\r\n            totalAmount += itemPrice * _quantities[i];\r\n        }\r\n        //returning discounted value\r\n        return  pr.applyDiscount(totalAmount);\r\n    }\r\n\r\n\r\n    function placeOrder(uint256[] memory _itemIndexes, uint256[] memory _quantities, uint payment) public{\r\n        uint256 totalAmount = calculateOrderAmount(_itemIndexes, _quantities);\r\n        require(payment >= totalAmount, \"You didnt pay enough\");\r\n\r\n        for (uint256 i = 0; i < _itemIndexes.length; i++) {\r\n            mm.updateQuantity(_itemIndexes[i], mm.getItemQuantity(_itemIndexes[i]) - _quantities[i]);\r\n        }\r\n\r\n        rl.incTokens(msg.sender);\r\n        fc.transferToCafe(msg.sender, payment);\r\n    }\r\n\r\n\r\n}",
  "sourcePath": "/Users/umarwaseem/Desktop/bchain-project-2/Cafeteria-System-Decentralized/truffle_smart_contracts/contracts/Project.sol",
  "compiler": {
    "name": "solc",
    "version": "0.8.13+commit.abaa5c0e.Emscripten.clang"
  },
  "schemaVersion": "3.4.16",
  "updatedAt": "2024-01-06T13:38:23.103Z",
  "networkType": "ethereum",
  "devdoc": {
    "kind": "dev",
    "methods": {},
    "version": 1
  },
  "userdoc": {
    "kind": "user",
    "methods": {},
    "version": 1
  }
}