{
  "contractName": "MenuManagement",
  "abi": [
    {
      "inputs": [],
      "stateMutability": "nonpayable",
      "type": "constructor"
    },
    {
      "inputs": [
        {
          "internalType": "uint256",
          "name": "",
          "type": "uint256"
        }
      ],
      "name": "menuItems",
      "outputs": [
        {
          "internalType": "string",
          "name": "itemName",
          "type": "string"
        },
        {
          "internalType": "uint256",
          "name": "quantity",
          "type": "uint256"
        },
        {
          "internalType": "uint256",
          "name": "price",
          "type": "uint256"
        }
      ],
      "stateMutability": "view",
      "type": "function"
    },
    {
      "inputs": [],
      "name": "owner",
      "outputs": [
        {
          "internalType": "address",
          "name": "",
          "type": "address"
        }
      ],
      "stateMutability": "view",
      "type": "function"
    },
    {
      "inputs": [],
      "name": "getItemsCount",
      "outputs": [
        {
          "internalType": "uint256",
          "name": "",
          "type": "uint256"
        }
      ],
      "stateMutability": "view",
      "type": "function"
    },
    {
      "inputs": [
        {
          "internalType": "string",
          "name": "_itemName",
          "type": "string"
        },
        {
          "internalType": "uint256",
          "name": "_itemQuantity",
          "type": "uint256"
        },
        {
          "internalType": "uint256",
          "name": "_itemPrice",
          "type": "uint256"
        }
      ],
      "name": "addItem",
      "outputs": [],
      "stateMutability": "nonpayable",
      "type": "function"
    },
    {
      "inputs": [
        {
          "internalType": "uint256",
          "name": "_index",
          "type": "uint256"
        },
        {
          "internalType": "uint256",
          "name": "_itemPrice",
          "type": "uint256"
        }
      ],
      "name": "updatePrice",
      "outputs": [],
      "stateMutability": "nonpayable",
      "type": "function"
    },
    {
      "inputs": [
        {
          "internalType": "uint256",
          "name": "_index",
          "type": "uint256"
        }
      ],
      "name": "getPrice",
      "outputs": [
        {
          "internalType": "uint256",
          "name": "",
          "type": "uint256"
        }
      ],
      "stateMutability": "view",
      "type": "function"
    },
    {
      "inputs": [
        {
          "internalType": "uint256",
          "name": "_index",
          "type": "uint256"
        },
        {
          "internalType": "uint256",
          "name": "_itemQuantity",
          "type": "uint256"
        }
      ],
      "name": "updateQuantity",
      "outputs": [],
      "stateMutability": "nonpayable",
      "type": "function"
    },
    {
      "inputs": [
        {
          "internalType": "uint256",
          "name": "_index",
          "type": "uint256"
        }
      ],
      "name": "getItemQuantity",
      "outputs": [
        {
          "internalType": "uint256",
          "name": "",
          "type": "uint256"
        }
      ],
      "stateMutability": "view",
      "type": "function"
    },
    {
      "inputs": [
        {
          "internalType": "uint256",
          "name": "_index",
          "type": "uint256"
        }
      ],
      "name": "checkAvailability",
      "outputs": [
        {
          "internalType": "bool",
          "name": "",
          "type": "bool"
        }
      ],
      "stateMutability": "view",
      "type": "function"
    },
    {
      "inputs": [],
      "name": "getAllItemNames",
      "outputs": [
        {
          "internalType": "string[]",
          "name": "",
          "type": "string[]"
        }
      ],
      "stateMutability": "view",
      "type": "function"
    },
    {
      "inputs": [],
      "name": "getAllItemPrices",
      "outputs": [
        {
          "internalType": "uint256[]",
          "name": "",
          "type": "uint256[]"
        }
      ],
      "stateMutability": "view",
      "type": "function"
    },
    {
      "inputs": [],
      "name": "getAllItemQuantities",
      "outputs": [
        {
          "internalType": "uint256[]",
          "name": "",
          "type": "uint256[]"
        }
      ],
      "stateMutability": "view",
      "type": "function"
    }
  ],
  "bytecode": "0x608060405234801561001057600080fd5b50336000806101000a81548173ffffffffffffffffffffffffffffffffffffffff021916908373ffffffffffffffffffffffffffffffffffffffff1602179055506111fe806100606000396000f3fe608060405234801561001057600080fd5b50600436106100b45760003560e01c806382367b2d1161007157806382367b2d146101a357806386ad7b08146101bf5780638da5cb5b146101dd578063a9389348146101fb578063d5e6c33314610219578063e757223014610235576100b4565b80632a5a8c63146100b95780632bbcac18146100eb578063512dd020146101095780636f5528c014610127578063753999ef1461015757806379cd492114610187575b600080fd5b6100d360048036038101906100ce9190610aa4565b610265565b6040516100e293929190610b79565b60405180910390f35b6100f3610327565b6040516101009190610c75565b60405180910390f35b6101116103eb565b60405161011e9190610c97565b60405180910390f35b610141600480360381019061013c9190610aa4565b6103f8565b60405161014e9190610c97565b60405180910390f35b610171600480360381019061016c9190610aa4565b610470565b60405161017e9190610ccd565b60405180910390f35b6101a1600480360381019061019c9190610ce8565b6104eb565b005b6101bd60048036038101906101b89190610ce8565b610562565b005b6101c7610631565b6040516101d49190610c75565b60405180910390f35b6101e56106f5565b6040516101f29190610d69565b60405180910390f35b610203610719565b6040516102109190610e90565b60405180910390f35b610233600480360381019061022e9190610fe7565b610869565b005b61024f600480360381019061024a9190610aa4565b61093f565b60405161025c9190610c97565b60405180910390f35b6001818154811061027557600080fd5b906000526020600020906003020160009150905080600001805461029890611085565b80601f01602080910402602001604051908101604052809291908181526020018280546102c490611085565b80156103115780601f106102e657610100808354040283529160200191610311565b820191906000526020600020905b8154815290600101906020018083116102f457829003601f168201915b5050505050908060010154908060020154905083565b6060600060018054905067ffffffffffffffff81111561034a57610349610ebc565b5b6040519080825280602002602001820160405280156103785781602001602082028036833780820191505090505b50905060005b6001805490508110156103e3576001818154811061039f5761039e6110b6565b5b9060005260206000209060030201600101548282815181106103c4576103c36110b6565b5b60200260200101818152505080806103db90611114565b91505061037e565b508091505090565b6000600180549050905090565b6000816001805490508110610442576040517f08c379a0000000000000000000000000000000000000000000000000000000008152600401610439906111a8565b60405180910390fd5b60018381548110610456576104556110b6565b5b906000526020600020906003020160010154915050919050565b60008160018054905081106104ba576040517f08c379a00000000000000000000000000000000000000000000000000000000081526004016104b1906111a8565b60405180910390fd5b6000600184815481106104d0576104cf6110b6565b5b90600052602060002090600302016001015411915050919050565b816001805490508110610533576040517f08c379a000000000000000000000000000000000000000000000000000000000815260040161052a906111a8565b60405180910390fd5b8160018481548110610548576105476110b6565b5b906000526020600020906003020160010181905550505050565b60008054906101000a900473ffffffffffffffffffffffffffffffffffffffff1673ffffffffffffffffffffffffffffffffffffffff163373ffffffffffffffffffffffffffffffffffffffff16146105ba57600080fd5b816001805490508110610602576040517f08c379a00000000000000000000000000000000000000000000000000000000081526004016105f9906111a8565b60405180910390fd5b8160018481548110610617576106166110b6565b5b906000526020600020906003020160020181905550505050565b6060600060018054905067ffffffffffffffff81111561065457610653610ebc565b5b6040519080825280602002602001820160405280156106825781602001602082028036833780820191505090505b50905060005b6001805490508110156106ed57600181815481106106a9576106a86110b6565b5b9060005260206000209060030201600201548282815181106106ce576106cd6110b6565b5b60200260200101818152505080806106e590611114565b915050610688565b508091505090565b60008054906101000a900473ffffffffffffffffffffffffffffffffffffffff1681565b6060600060018054905067ffffffffffffffff81111561073c5761073b610ebc565b5b60405190808252806020026020018201604052801561076f57816020015b606081526020019060019003908161075a5790505b50905060005b6001805490508110156108615760018181548110610796576107956110b6565b5b906000526020600020906003020160000180546107b290611085565b80601f01602080910402602001604051908101604052809291908181526020018280546107de90611085565b801561082b5780601f106108005761010080835404028352916020019161082b565b820191906000526020600020905b81548152906001019060200180831161080e57829003601f168201915b5050505050828281518110610843576108426110b6565b5b6020026020010181905250808061085990611114565b915050610775565b508091505090565b60008054906101000a900473ffffffffffffffffffffffffffffffffffffffff1673ffffffffffffffffffffffffffffffffffffffff163373ffffffffffffffffffffffffffffffffffffffff16146108c157600080fd5b6001604051806060016040528085815260200184815260200183815250908060018154018082558091505060019003906000526020600020906003020160009091909190915060008201518160000190805190602001906109239291906109b7565b5060208201518160010155604082015181600201555050505050565b6000816001805490508110610989576040517f08c379a0000000000000000000000000000000000000000000000000000000008152600401610980906111a8565b60405180910390fd5b6001838154811061099d5761099c6110b6565b5b906000526020600020906003020160020154915050919050565b8280546109c390611085565b90600052602060002090601f0160209004810192826109e55760008555610a2c565b82601f106109fe57805160ff1916838001178555610a2c565b82800160010185558215610a2c579182015b82811115610a2b578251825591602001919060010190610a10565b5b509050610a399190610a3d565b5090565b5b80821115610a56576000816000905550600101610a3e565b5090565b6000604051905090565b600080fd5b600080fd5b6000819050919050565b610a8181610a6e565b8114610a8c57600080fd5b50565b600081359050610a9e81610a78565b92915050565b600060208284031215610aba57610ab9610a64565b5b6000610ac884828501610a8f565b91505092915050565b600081519050919050565b600082825260208201905092915050565b60005b83811015610b0b578082015181840152602081019050610af0565b83811115610b1a576000848401525b50505050565b6000601f19601f8301169050919050565b6000610b3c82610ad1565b610b468185610adc565b9350610b56818560208601610aed565b610b5f81610b20565b840191505092915050565b610b7381610a6e565b82525050565b60006060820190508181036000830152610b938186610b31565b9050610ba26020830185610b6a565b610baf6040830184610b6a565b949350505050565b600081519050919050565b600082825260208201905092915050565b6000819050602082019050919050565b610bec81610a6e565b82525050565b6000610bfe8383610be3565b60208301905092915050565b6000602082019050919050565b6000610c2282610bb7565b610c2c8185610bc2565b9350610c3783610bd3565b8060005b83811015610c68578151610c4f8882610bf2565b9750610c5a83610c0a565b925050600181019050610c3b565b5085935050505092915050565b60006020820190508181036000830152610c8f8184610c17565b905092915050565b6000602082019050610cac6000830184610b6a565b92915050565b60008115159050919050565b610cc781610cb2565b82525050565b6000602082019050610ce26000830184610cbe565b92915050565b60008060408385031215610cff57610cfe610a64565b5b6000610d0d85828601610a8f565b9250506020610d1e85828601610a8f565b9150509250929050565b600073ffffffffffffffffffffffffffffffffffffffff82169050919050565b6000610d5382610d28565b9050919050565b610d6381610d48565b82525050565b6000602082019050610d7e6000830184610d5a565b92915050565b600081519050919050565b600082825260208201905092915050565b6000819050602082019050919050565b600082825260208201905092915050565b6000610dcc82610ad1565b610dd68185610db0565b9350610de6818560208601610aed565b610def81610b20565b840191505092915050565b6000610e068383610dc1565b905092915050565b6000602082019050919050565b6000610e2682610d84565b610e308185610d8f565b935083602082028501610e4285610da0565b8060005b85811015610e7e5784840389528151610e5f8582610dfa565b9450610e6a83610e0e565b925060208a01995050600181019050610e46565b50829750879550505050505092915050565b60006020820190508181036000830152610eaa8184610e1b565b905092915050565b600080fd5b600080fd5b7f4e487b7100000000000000000000000000000000000000000000000000000000600052604160045260246000fd5b610ef482610b20565b810181811067ffffffffffffffff82111715610f1357610f12610ebc565b5b80604052505050565b6000610f26610a5a565b9050610f328282610eeb565b919050565b600067ffffffffffffffff821115610f5257610f51610ebc565b5b610f5b82610b20565b9050602081019050919050565b82818337600083830152505050565b6000610f8a610f8584610f37565b610f1c565b905082815260208101848484011115610fa657610fa5610eb7565b5b610fb1848285610f68565b509392505050565b600082601f830112610fce57610fcd610eb2565b5b8135610fde848260208601610f77565b91505092915050565b60008060006060848603121561100057610fff610a64565b5b600084013567ffffffffffffffff81111561101e5761101d610a69565b5b61102a86828701610fb9565b935050602061103b86828701610a8f565b925050604061104c86828701610a8f565b9150509250925092565b7f4e487b7100000000000000000000000000000000000000000000000000000000600052602260045260246000fd5b6000600282049050600182168061109d57607f821691505b6020821081036110b0576110af611056565b5b50919050565b7f4e487b7100000000000000000000000000000000000000000000000000000000600052603260045260246000fd5b7f4e487b7100000000000000000000000000000000000000000000000000000000600052601160045260246000fd5b600061111f82610a6e565b91507fffffffffffffffffffffffffffffffffffffffffffffffffffffffffffffffff8203611151576111506110e5565b5b600182019050919050565b7f496e76616c696420696e64657800000000000000000000000000000000000000600082015250565b6000611192600d83610adc565b915061119d8261115c565b602082019050919050565b600060208201905081810360008301526111c181611185565b905091905056fea2646970667358221220353b63cdf6661c025b3a330093fe86346935f7874bf6d8241081ec1f140565d464736f6c634300080d0033",
  "immutableReferences": {},
  "source": "// SPDX-License-Identifier: MIT\r\n\r\npragma solidity >=0.4.22 <0.9.0;\r\n\r\ninterface ERC20 {\r\n    // total supply of the tokens\r\n    function totalSupply() external view returns (uint256);\r\n\r\n    // balance of a particular account\r\n    function balanceOf(address account) external view returns (uint256);\r\n\r\n    function transfer(\r\n        address recipient,\r\n        uint256 amount\r\n    ) external returns (bool);\r\n\r\n    function allowance(\r\n        address _owner,\r\n        address _spender\r\n    ) external view returns (uint256);\r\n\r\n    function approve(address spender, uint256 value) external returns (bool);\r\n\r\n    function transferFrom(\r\n        address sender,\r\n        address recipient,\r\n        uint256 amount\r\n    ) external returns (bool);\r\n}\r\n\r\ncontract FastCoin is ERC20 {\r\n    string public name = \"FastCoin\";\r\n    string public symbol = \"FC\";\r\n\r\n    address public cafe;\r\n    uint256 public totalTokenSupply = 1000000 * (10 ** 18);\r\n\r\n    // which address has how many tokens\r\n    mapping(address => uint256) public balances;\r\n\r\n    // which address has allowed which address to spend how many tokens\r\n    mapping(address => mapping(address => uint256)) public allowances;\r\n\r\n    constructor() {\r\n        cafe = msg.sender;\r\n        // give half of the tokens to the owner\r\n        balances[cafe] = totalTokenSupply;\r\n    }\r\n\r\n    // total supply of the tokens\r\n    function totalSupply() external view override returns (uint256) {\r\n        return totalTokenSupply;\r\n    }\r\n\r\n    // balance of a particular account\r\n    function balanceOf(\r\n        address account\r\n    ) external view override returns (uint256) {\r\n        return balances[account];\r\n    }\r\n\r\n    function getTokens() external payable {\r\n        //1 eth = 100 FC\r\n        payable(cafe).transfer(msg.value);\r\n        uint256 tokensToSend = (msg.value / 1 ether) * 100;\r\n        balances[msg.sender] += tokensToSend;\r\n        balances[cafe] -= tokensToSend;\r\n    }\r\n\r\n    function transferToCafe(\r\n        address customer,\r\n        uint256 amount\r\n    ) external returns (bool) {\r\n        require(balances[customer] >= amount, \"Insufficient Funds\");\r\n        balances[customer] -= amount;\r\n        balances[cafe] += amount;\r\n        return true;\r\n    }\r\n\r\n    function transferFromCafe(\r\n        address customer,\r\n        uint256 amount\r\n    ) external returns (bool) {\r\n        require(balances[cafe] >= amount, \"Insufficient Funds\");\r\n        balances[cafe] -= amount;\r\n        balances[customer] += amount;\r\n        return true;\r\n    }\r\n\r\n    // transfer tokens from the contract invoker to the recipient\r\n    function transfer(\r\n        address recipient,\r\n        uint256 amount\r\n    ) external returns (bool) {\r\n        require(\r\n            balances[msg.sender] >= amount,\r\n            \"You dont have enough balance to transfer the amount\"\r\n        );\r\n        balances[msg.sender] -= amount;\r\n        balances[recipient] += amount;\r\n        return true;\r\n    }\r\n\r\n    function approve(address spender, uint256 value) external returns (bool) {\r\n        require(\r\n            balances[msg.sender] >= value,\r\n            \"You dont have enough balance to set the allowance amount\"\r\n        );\r\n        allowances[msg.sender][spender] = value;\r\n        return true;\r\n    }\r\n\r\n    // check the allowance and its availablity\r\n    function allowance(\r\n        address _owner,\r\n        address _spender\r\n    ) external view returns (uint256) {\r\n        return allowances[_owner][_spender];\r\n    }\r\n\r\n    function transferFrom(\r\n        address sender,\r\n        address recipient,\r\n        uint256 amount\r\n    ) external returns (bool) {\r\n        // sender should have enough balance to spend\r\n        require(\r\n            balances[sender] >= amount,\r\n            \"The sender balance is less than the amount\"\r\n        );\r\n        require(\r\n            allowances[sender][msg.sender] >= amount,\r\n            \"The allowance for contract invoker is less than the amount\"\r\n        );\r\n\r\n        // cut balance from sender and add to reciepent\r\n        balances[sender] -= amount;\r\n        balances[recipient] += amount;\r\n\r\n        allowances[sender][msg.sender] -= amount;\r\n\r\n        return true;\r\n    }\r\n}\r\n\r\ncontract MenuManagement {\r\n    // state variables (stored directly on the blockchain)\r\n    address public owner;\r\n\r\n    // called only once when the smart contract is deployed to the blockchain\r\n    constructor() {\r\n        owner = msg.sender;\r\n    }\r\n\r\n    struct MenuItem {\r\n        string itemName;\r\n        uint256 quantity;\r\n        uint256 price;\r\n    }\r\n\r\n    // array to store menu items\r\n    MenuItem[] public menuItems;\r\n\r\n    function getItemsCount() public view returns (uint256) {\r\n        return menuItems.length;\r\n    }\r\n\r\n    modifier onlyOwner() {\r\n        require(msg.sender == owner);\r\n        _;\r\n    }\r\n\r\n    modifier indexCheck(uint256 _index) {\r\n        require(_index < menuItems.length, \"Invalid index\");\r\n        _;\r\n    }\r\n\r\n    function addItem(\r\n        string memory _itemName,\r\n        uint256 _itemQuantity,\r\n        uint256 _itemPrice\r\n    ) public onlyOwner {\r\n        menuItems.push(MenuItem(_itemName, _itemQuantity, _itemPrice));\r\n    }\r\n\r\n    function updatePrice(\r\n        uint256 _index,\r\n        uint256 _itemPrice\r\n    ) public onlyOwner indexCheck(_index) {\r\n        // multiply by 1 ether to convert to wei\r\n        menuItems[_index].price = _itemPrice;\r\n    }\r\n\r\n    function getPrice(\r\n        uint256 _index\r\n    ) public view indexCheck(_index) returns (uint256) {\r\n        // divide by 1 ether to convert to ether\r\n        return menuItems[_index].price;\r\n    }\r\n\r\n    function updateQuantity(\r\n        uint256 _index,\r\n        uint256 _itemQuantity\r\n    ) public indexCheck(_index) {\r\n        menuItems[_index].quantity = _itemQuantity;\r\n    }\r\n\r\n    function getItemQuantity(\r\n        uint256 _index\r\n    ) public view indexCheck(_index) returns (uint256) {\r\n        return menuItems[_index].quantity;\r\n    }\r\n\r\n    function checkAvailability(\r\n        uint256 _index\r\n    ) public view indexCheck(_index) returns (bool) {\r\n        // available if quantity is more than 0\r\n        return (menuItems[_index].quantity > 0);\r\n    }\r\n\r\n    function getAllItemNames() public view returns (string[] memory) {\r\n        string[] memory itemNames = new string[](menuItems.length);\r\n        for (uint256 i = 0; i < menuItems.length; i++) {\r\n            itemNames[i] = menuItems[i].itemName;\r\n        }\r\n        return itemNames;\r\n    }\r\n\r\n    function getAllItemPrices() public view returns (uint256[] memory) {\r\n        uint256[] memory itemPrices = new uint256[](menuItems.length);\r\n        for (uint256 i = 0; i < menuItems.length; i++) {\r\n            itemPrices[i] = menuItems[i].price;\r\n        }\r\n        return itemPrices;\r\n    }\r\n\r\n    function getAllItemQuantities() public view returns (uint256[] memory) {\r\n        uint256[] memory itemQuantities = new uint256[](menuItems.length);\r\n        for (uint256 i = 0; i < menuItems.length; i++) {\r\n            itemQuantities[i] = menuItems[i].quantity;\r\n        }\r\n        return itemQuantities;\r\n    }\r\n}\r\n\r\ncontract promotions {\r\n    uint256 public discount;\r\n    address public owner;\r\n\r\n    constructor() {\r\n        owner = msg.sender;\r\n    }\r\n\r\n    modifier onlyOwner() {\r\n        require(msg.sender == owner);\r\n        _;\r\n    }\r\n\r\n    function setDiscount(uint256 disc) public onlyOwner {\r\n        discount = disc;\r\n    }\r\n\r\n    function applyDiscount(uint256 amount) public view returns (uint256) {\r\n        return (amount * (100 - discount)) / 100;\r\n    }\r\n}\r\n\r\ncontract RewardsLoyalty {\r\n    mapping(address => uint256) public loyaltyTokens;\r\n    FastCoin public fc;\r\n    address public owner;\r\n\r\n    constructor(FastCoin _fc) {\r\n        owner = msg.sender;\r\n        fc = _fc;\r\n    }\r\n\r\n    function incTokens(address _customer) public {\r\n        //10 loyalty points given for each purchase\r\n        loyaltyTokens[_customer] += 10;\r\n    }\r\n\r\n    function redeemPrize() public {\r\n        uint256 prize = loyaltyTokens[msg.sender] / 10;\r\n        loyaltyTokens[msg.sender] = 0;\r\n        fc.transferFromCafe(msg.sender, prize);\r\n    }\r\n}\r\n\r\ncontract OrderContract {\r\n    address public owner;\r\n    MenuManagement public mm;\r\n    promotions public pr;\r\n    RewardsLoyalty public rl;\r\n    FastCoin public fc;\r\n\r\n    constructor(\r\n        MenuManagement _mm,\r\n        promotions _pr,\r\n        RewardsLoyalty _rl,\r\n        FastCoin _fc\r\n    ) {\r\n        owner = msg.sender;\r\n        mm = _mm;\r\n        pr = _pr;\r\n        rl = _rl;\r\n        fc = _fc;\r\n    }\r\n\r\n    function calculateOrderAmount(\r\n        uint256[] memory _itemIndexes,\r\n        uint256[] memory _quantities\r\n    ) public view returns (uint256) {\r\n        require(\r\n            _itemIndexes.length == _quantities.length,\r\n            \"Error: Item and quantity count mismatch\"\r\n        );\r\n\r\n        // check for an invalid item index and availability\r\n        for (uint256 i = 0; i < _itemIndexes.length; i++) {\r\n            require(_itemIndexes[i] < mm.getItemsCount(), \"Invalid item index\");\r\n            require(mm.checkAvailability(_itemIndexes[i]), \"Item out of stock\");\r\n        }\r\n\r\n        uint256 totalAmount = 0;\r\n\r\n        for (uint256 i = 0; i < _itemIndexes.length; i++) {\r\n            uint256 itemPrice = mm.getPrice(_itemIndexes[i]);\r\n            totalAmount += itemPrice * _quantities[i];\r\n        }\r\n        //returning discounted value\r\n        return pr.applyDiscount(totalAmount);\r\n    }\r\n\r\n    function placeOrder(\r\n        uint256[] memory _itemIndexes,\r\n        uint256[] memory _quantities,\r\n        uint payment\r\n    ) public {\r\n        uint256 totalAmount = calculateOrderAmount(_itemIndexes, _quantities);\r\n        require(payment >= totalAmount, \"You didnt pay enough\");\r\n\r\n        for (uint256 i = 0; i < _itemIndexes.length; i++) {\r\n            mm.updateQuantity(\r\n                _itemIndexes[i],\r\n                mm.getItemQuantity(_itemIndexes[i]) - _quantities[i]\r\n            );\r\n        }\r\n\r\n        rl.incTokens(msg.sender);\r\n        fc.transferToCafe(msg.sender, payment);\r\n    }\r\n}\r\n",
  "sourcePath": "/Users/umarwaseem/Desktop/bchain-project-2/Cafeteria-System-Decentralized/truffle_smart_contracts/contracts/Project.sol",
  "compiler": {
    "name": "solc",
    "version": "0.8.13+commit.abaa5c0e.Emscripten.clang"
  },
  "schemaVersion": "3.4.16",
  "updatedAt": "2024-01-06T16:15:19.779Z",
  "devdoc": {
    "kind": "dev",
    "methods": {},
    "version": 1
  },
  "userdoc": {
    "kind": "user",
    "methods": {},
    "version": 1
  }
}